:020000040800F2
:10300000000001209D530008753100087731000849
:10301000793100087B3100087D3100080000000094
:1030200000000000000000000000000081310008E6
:103030007F3100080000000083310008853100085E
:10304000893100088B3100088D3100088F3100086C
:10305000913100089331000895310008973100083C
:10306000993100089B3100089D31000800000000E4
:103070000000000000000000000000000000000050
:103080000000000000000000AD310008AF31000872
:10309000B1310008B3310008B5310008B73100087C
:1030A000B9310008BB310008BD310008BF3100084C
:1030B000C1310008C5310008C7310008C931000816
:1030C000CB310008CD310008CF310008D1310008E4
:1030D000D3310008D5310008D9310008DB310008B0
:1030E000DF310008E1310008E3310008E531000874
:1030F000E7310008E9310008EB310008ED31000844
:10310000EF310008F1310008F3310008F531000813
:10311000F7310008F9310008FB310008FD310008E3
:10312000FF310008013200080332000805320008B0
:043130005FF8000044
:1031340008B54FF08040022101F044FF50B1064829
:1031440000F036F94FF08042138A23F002031B0487
:103154001B0C138208BD00BFB0540008034B1A684F
:1031640012B11A68013A1A60704700BF10000020BB
:103174007047FEE7FEE7FEE7FEE7704770477047DB
:10318400FFF7ECBF70477047704770477047704750
:103194007047704770477047704770477047704773
:1031A4007047704770477047704770477047704763
:1031B400704770477047704770477047FFF7B8BF54
:1031C4007047704770477047704770477047704743
:1031D40000F0F2B9704700F05FB97047704770476C
:1031E4007047704770477047704770477047704723
:1031F4007047704770477047704770477047704713
:103204007047000010B500F0E5FF4FF4803000F087
:10321400FFFF01F04FF9012804460DD044F20800E5
:10322400012101F0F1F81748012101F0F9F8BDE896
:103234001040012000F077BF102000F085FA022032
:1032440000F06AFA002001F031F8002001F042F8A1
:103254004FF4806001F034F84FF480304FF4E01103
:1032640001F002F8204601F009F8392001F00EF9C6
:103274000028FAD0022001F007F801F00FF808281E
:10328400FBD1CBE70100040037B54FF440514FF0B8
:10329400006000F085FE4FF4A06000F0D7FD00252B
:1032A4000124252301A88DF804308DF805508DF8EC
:1032B40006508DF8074000F0D3FD1C2301A88DF8BB
:1032C40004308DF805408DF806508DF8074000F065
:1032D400C7FD03B030BDF7B51E4C01A800F003FDD7
:1032E4000426302303271025204601A9ADF8043015
:1032F4008DF806708DF8075000F0A7FC4FF40863B2
:1033040020460DEB0601ADF804308DF8076000F09F
:103314009CFC4FF48863ADF80430204618230DEB71
:1033240006018DF807308DF8067000F08EFC3046EB
:10333400012100F019FD0848012100F015FD204687
:10334400294600F0ECFC2046202100F0E6FC03B006
:10335400F0BD00BF000C01400004300008B5092096
:1033640001F0E4F8BDE80840012001F0F9B84FF09D
:103374008043002240F24C411A8019854FF6FF71B8
:10338400998502211A8399814FF47F4199869A8401
:10339400704700BF014608B5044801F038FF0348F0
:1033A400402101F08FFF0028F9D008BD00480040FB
:1033B40010B5441E14F8010F10B1FFF7EBFFF9E745
:1033C40010BD70B505460E460024B44204DA285DEB
:1033D400FFF7E0FF0134F8E770BD10B504460120A3
:1033E40001F0AAF8064B1C601C68002CFCD16FF09D
:1033F400010001F0A1F82046BDE8104001F09CB89E
:10340400100000204FF47A735843FFF7E6BF30B53D
:1034140085B0044668460D4601F072FE0023ADF8FF
:103424000430ADF80630ADF80830ADF80C300C239C
:103434000095ADF80A3094B9154801F0D3FD42F275
:103444001070FFF7CAFF1248694601F015FE1048D4
:1034540040F22551012201F080FE0D4813E0022CB8
:1034640014D10C4801F0BEFD42F21070FFF7B5FF15
:103474000848694601F000FE064840F22551012241
:1034840001F06BFE0348012101F05BFE05B030BD85
:10349400003801400048004038B5084840F2255142
:1034A40001F01AFF48B1064C0448656801F0B3FE08
:1034B4002544C0B201232872E37538BD004800409A
:1034C4001000002010B5202104460D4800F027FC10
:1034D4000B48102100F021FC0A48214601F097FE18
:1034E4000848402101F0EEFE0028F9D004481021DC
:1034F40000F015FCBDE810400148202100F00DBC8F
:10350400000C01400038014038B5154BFF24987079
:103514009A710520120AD870DA71032000221C70F7
:103524005C705971187111461C460132072A04D087
:10353400A3185B78194489B2F7E70025C9432172BF
:1035440065722561605D0135FFF7BCFF092DF9D176
:1035540040F6C41300BF013B9BB2002BFAD138BD27
:103564002C00002038B5134BFF221A705A70042225
:10357400DA7002221A7101229A710022597198702C
:1035840011461C460132062A04D0A3185B7819445C
:10359400C9B2F7E70025C943E17125722561605D71
:1035A4000135FFF78FFF082DF9D1BDE838400A2017
:1035B400FFF728BF2C00002038B5094840F22551F8
:1035C40001F08AFE50B1074C0548256901F023FE3D
:1035D4002544C0B2287523690133236138BD00BF77
:1035E400003801402C0000201FB50446684601F055
:1035F40087FD0094114C0023ADF80430ADF806307B
:10360400ADF80830ADF80C3020460C23ADF80A3084
:1036140001F0E8FC0A20FFF7F5FE2046694601F0B8
:103624002BFD2046012240F2255101F096FD204653
:10363400012101F086FD04B010BD00BF0038014037
:10364400FFF7D2BF10B540F2FF34A04238BF0446A2
:1036540004F58062064B92B20A2020211A80FFF7FB
:1036640053FF224609202021BDE81040FFF74CBF3C
:103674005400002010B540F2FF34A04238BF044685
:10368400074B22460A2020211C80FFF73DFF04F54A
:1036940080620920202192B2BDE81040FFF734BFB8
:1036A4005400002038B50C4B05461C880A2004F54C
:1036B4008064A4B222462021FFF726FF40F2FF33A4
:1036C4009D4228BF1D46621B0920202192B2BDE8FD
:1036D4003840FFF719BF00BF5400002010B50C4C50
:1036E40040F2FF322388904228BF104603F58063DE
:1036F4001A1A20210A2092B2FFF706FF2288092015
:1037040002F58062202192B2BDE81040FFF7FCBEB2
:1037140054000020704700BF044B1A6802F03802BE
:103724001A601A6810431860704700BF00200240F6
:10373400044B1A6822F008021A601A6810431860D1
:10374400704700BF00200240044B1A6822F01002A8
:103754001A601A6810431860704700BF00200240C6
:10376400034B044A5A6002F188325A60704700BF22
:103774000020024023016745024B1A6942F080028F
:103784001A61704700200240014BD86980087047D5
:1037940000200240014B186A704700BF002002401D
:1037A400024BD869C0F34000704700BF00200240BC
:1037B400024B1868C0F34010704700BF002002405D
:1037C400044B1A6909B1104301E022EA00001861B0
:1037D400704700BF002002400128064B03D1D8697E
:1037E40000F001007047DB6818420CBF0020012084
:1037F400704700BF00200240014BD860704700BFF3
:1038040000200240084BDA68D10709D4DA6852076D
:1038140008D4DB6813F0100F0CBF0420032070479A
:1038240001207047022070470020024013B504466F
:10383400FFF7E8FF01280FD164B100230193FF23B0
:103844000193019B13B1019B013BF9E7FFF7DAFFF9
:10385400013CEFE7052002E0002C08BF052002B080
:1038640010BD38B5054640F6FF70FFF7DFFF0428AA
:1038740014D10B4C40F6FF70236943F0020323611B
:103884006561236943F040032361FFF7CFFF0128FB
:1038940004D0226941F6FD731340236138BD00BF93
:1038A4000020024010B540F6FF70FFF7BFFF042868
:1038B40013D10A4C40F6FF70236943F004032361DB
:1038C400236943F040032361FFF7B0FF012804D0CC
:1038D400226941F6FB731340236110BD00200240AE
:1038E40010B540F6FF70FFF7A1FF042829D1154C4D
:1038F400154B40F6FF70A36003F18833A36023697E
:1039040043F020032361236943F040032361FFF75D
:103914008DFF04280ED1226941F6DF731340236121
:103924002369A52243F010032361084B0F201A805A
:10393400FFF77CFF012804D0226941F6EF7313409E
:10394400236110BD002002402301674500F8FF1FDA
:1039540070B505460F200E46FFF768FF042817D1FF
:103964000C4C0F20236943F001032361B3B22B8075
:10397400FFF75CFF042804D1360C6E800F20FFF79C
:1039840055FF012804D0226941F6FE7313402361D8
:1039940070BD00BF0020024070B505460F200E46E2
:1039A400FFF744FF04280FD1084C0F20236943F08C
:1039B400010323612E80FFF739FF012804D0226917
:1039C40041F6FE731340236170BD00BF0020024026
:1039D40070B505460F200E46FFF728FF042814D1C2
:1039E4000A4C0B4B0F20A36003F18833A3602369B7
:1039F40043F0100323612E80FFF718FF012804D041
:103A0400226941F6EF731340236170BD0020024028
:103A14002301674510B504460F20FFF707FF04286C
:103A24003ED1204B2049E443996001F188319960EB
:103A34001969E2B241F01001FF2A196104D1C4F3FB
:103A44000723FF2B08D10EE0184B0F201A81FFF734
:103A5400EDFE04281CD1F2E7144A0F205381FFF72E
:103A6400E5FE042814D1C4F30743FF2B06D00F4A04
:103A74000F209381FFF7DAFE042809D1240EFF2CCE
:103A840001D1042006E0094B0F20DC81FFF7CEFEB4
:103A9400012805D0034A41F6EF7311690B40136105
:103AA40010BD00BF002002402301674500F8FF1F3E
:103AB40038B5054640F6FF70FFF7B8FE042836D146
:103AC4001B4C1C4B40F6FF70A36003F18833A360CA
:103AD400236943F020032361236943F040032361F6
:103AE400FFF7A4FE04281BD1226941F6DF731340BB
:103AF4002361236943F0100323610F4B0DB10022AE
:103B040000E0A5221A8040F6FF70FFF78FFE01281F
:103B14000DD0074A41F6EF7311690B40136138BDAC
:103B2400012804D0226941F6DF731340236138BDB4
:103B3400002002402301674500F8FF1FF8B5114C2F
:103B4400114B0546A36003F18833A3600F200E4692
:103B54001746FFF76BFE042813D1236947F0F807D3
:103B640043F0100323613E43084B35435D800F202F
:103B7400FFF75CFE012804D0226941F6EF7313407D
:103B84002361F8BD002002402301674500F8FF1FB0
:103B940008B5264B98422FD011D8A3F5006398425C
:103BA4001ED003F58063984220D0A3F500639842A9
:103BB4003AD10420012100F03FFC04202FE01C4BEB
:103BC40098421FD003F58063984221D0A3F5006387
:103BD400984229D14020012100F02EFC40201EE013
:103BE4000820012100F028FC082018E01020012101
:103BF40000F022FC102012E02020012100F01CFC27
:103C040020200CE08020012100F016FC802006E03A
:103C14004FF48070012100F00FFC4FF480700021FC
:103C2400BDE8084000F008BC08BD00BF0014014016
:103C3400001C014008B50120014600F0FDFBBDE871
:103C440008400120002100F0F7BBCB78F0B5DA067C
:103C540048BF8A78098803F00F0548BF154311F05F
:103C6400FF0F1DD0046800220127974007EA0106D0
:103C7400BE4211D197004FF00F0C0CFA07FC05FA65
:103C840007F724EA0C04282B44EA070401D146610F
:103C940002E0482B08BF06610132082AE4D104601F
:103CA400FF291FD94468002202F108060127B74002
:103CB40007EA0106BE4211D197004FF00F0C0CFA2F
:103CC40007FC05FA07F724EA0C04282B44EA070446
:103CD40001D1466102E0482B08BF06610132082A7F
:103CE400E2D14460F0BD4FF6FF730380022383707A
:103CF4000423C3707047836819420CBF002001205D
:103D04007047806880B27047C36819420CBF0020B6
:103D140001207047C06880B27047016170474161FB
:103D240070470AB10161704741617047C1607047D3
:103D340041F480338361816183618369836970475E
:103D4400054A10B514684FF680732340194341EABD
:103D54000010106010BD00BF00000140014B18604E
:103D6400704700BF1C00204230B5134A00F44015D0
:103D7400B5F5401F536884B206D1556823F07063CB
:103D840025F0706555600FE0C50205D5C0F3034208
:103D9400032505FA02F203E0420D120104FA02F2CD
:103DA40023EA020343F0706319B1400D000184401B
:103DB4002343014A536030BD0000014001F0030376
:103DC4009B000F229A40984001F0FC0101F18041D0
:103DD40001F5803110B58C6824EA02028A608A6891
:103DE40002438A6010BD00BF0B4B6FF070424FF06E
:103DF400FF31C3F88010C3F88420C3F88011C3F8DE
:103E04008421002202F1C001013200200F2A43F86C
:103E14002100F7D1704700BF00E100E0094B4FF0EB
:103E2400206209495A6000229A60D9601A615A6175
:103E34009A61DA611A625A624FF0FF329A62DA6268
:103E44001A63704700ED00E00000FA0540F0BF601F
:103E5400024B40F40030D860704700BF00ED00E032
:103E6400C27830B503785AB31B4A4478D26885784F
:103E7400D243C2F30222C2F1040104FA01F10F2475
:103E8400D4402C400C4303F00301C9002401FF2259
:103E94008C408A4003F0FC0303F1604303F5614363
:103EA400D3F8005325EA020122400A43C3F8002351
:103EB40003780122590903F01F0302FA03F306E011
:103EC4005909012203F01F0302FA03F32031034AC4
:103ED40042F8213030BD00BF00ED00E000E100E019
:103EE4000023037043708370C370704701F041BABC
:103EF40001F041BA01F041BA01F041BA000101F008
:103F040040BA01F041BA024B5868C0F30930704717
:103F140000ED00E000F01F03012202FA03F3400960
:103F2400044A403052F820001840C31A58425841FD
:103F3400704700BF00E100E0014B1860704700BF0C
:103F440000EF00E04209012300F01F0003FA00F033
:103F5400024B603243F82200704700BF00E100E0EA
:103F6400024B5868C0F30900704700BF00ED00E041
:103F740000F01F03012202FA03F34009044A8030CF
:103F840052F820001840C21A50425041704700BFF6
:103F940000E100E0014B1868704700BF00ED00E04D
:103FA40021F0604121F07F01014B08439860704784
:103FB40000ED00E0014A024BDA6070470400FA05A4
:103FC40000ED00E0014A024BDA6070470100FA0597
:103FD40000ED00E0044B1A6909B1104301E022EA44
:103FE40000001861704700BF00ED00E0012300F0FD
:103FF4001F0003FA00F0044B5A6A09B1104301E0B0
:1040040022EA00005862704700ED00E0114B10B541
:10401400DB68DB43C3F30223C3F10404A140FF24A0
:1040240024FA03F31A401143C0F30122D20094404E
:10403400090101FA02F2C0F381139B0003F160430A
:1040440003F56D43986920EA04049C61986902436E
:104054009A6110BD00ED00E0C0F38320012383408A
:10406400034A506A1840C11A48424841704700BF89
:1040740000ED00E000F01F00012101FA00F0024B06
:104084005A6802435A60704700ED00E000F01F00D8
:10409400411E012000FA01F1024B5A680A435A609A
:1040A400704700BF00ED00E0C0F38330012383407C
:1040B400044A506A1840B0EB030CDCF1000050EBEA
:1040C4000C00704700ED00E0C0F38142094B0AB9CF
:1040D400D86A7047012A0AD1C0F30152986AD30002
:1040E400D840022A14BF00F00F00C0B27047186B0A
:1040F400704700BF00ED00E0034B10F4800F0CBFCD
:10410400586B986B704700BF00ED00E008B54FF0A6
:104114008050012100F09CF9BDE808404FF0805028
:10412400002100F095B9014B1860704720000E4241
:10413400014B1860704700BF10000E42034B1A6811
:1041440022F0E00210431860704700BF0070004086
:10415400014B1860704700BFA0000E42084B0129B4
:104164001A6822F0030240EA02001860054B1A683C
:1041740042F004021A6001D101F0D6B801F0D6B8B9
:104184000070004010ED00E0074B1A6842F0040292
:104194001A601A6842F002021A60044B1A6842F06C
:1041A40004021A6001F0C0B80070004010ED00E095
:1041B400034B5B6818420CBF00200120704700BF0E
:1041C40000700040024B1A6842EA80001860704791
:1041D400007000400C4B1A6842F001021A605968E2
:1041E4000A4A0A405A601A6822F0847222F4803221
:1041F4001A601A6822F480221A605A6822F4FE02B5
:104204005A6000229A607047001002400000FFF8D4
:104214000C4BB0F5803F1A6822F480321A601A6899
:1042240022F480221A6003D0B0F5802F04D07047A6
:104234001A6842F4803202E01A6842F4A0221A603A
:10424400704700BF00100240034B1A6822F0F802C6
:1042540042EAC0001860704700100240014B186029
:10426400704700BF00004242034B5A6822F47C129C
:10427400114308435860704700100240014B186016
:10428400704700BF60004242034B5A6822F00302A9
:1042940010435860704700BF00100240024B58683A
:1042A40000F00C00704700BF00100240034B5A6836
:1042B40022F0F00210435860704700BF0010024023
:1042C400034B5A6822F4E06210435860704700BF01
:1042D40000100240034B5A6822F4605242EAC000C4
:1042E4005860704700100240044B1A7809B110431B
:1042F40001E022EA00001870704700BF0910024074
:10430400014B1860704700BFD8004242034B5A6803
:1043140022F4404210435860704700BF001002402E
:10432400064B002201281A701A7002D0042802D009
:1043340070471870704705221A70704720100240A9
:10434400014B1860704700BF80044242024B1A6A56
:1043540010431862704700BF00100240014B186000
:10436400704700BF3C0442421D4B10B55A6802F02E
:104374000C02042A01D0082A02D01A4B03600FE071
:104384005A685968C2F38342C90302F1020202D592
:104394005B689B0301D5144B00E0124B5A43026047
:1043A4000F4A124B5168C1F303115C5C0168E14090
:1043B40041605468C4F302241C5D21FA04F484604F
:1043C4005468C4F3C2241C5DE140C1605268C2F366
:1043D400813213441B7CB1FBF3F1016110BD00BFBA
:1043E4000010024000127A0000093D0090540008B9
:1043F400044B5A6909B1104301E022EA00005861F4
:10440400704700BF00100240044B9A6909B1104381
:1044140001E022EA00009861704700BF00100240EA
:10442400044BDA6909B1104301E022EA0000D861C3
:10443400704700BF00100240044BDA6809B1104312
:1044440001E022EA0000D860704700BF001002407B
:10445400044B1A6909B1104301E022EA0000186113
:10446400704700BF00100240014B1860704700BF46
:1044740040044242014B1860704700BF4C00424266
:10448400014B1870704700BF071002404309012B0D
:10449400074A01D1136803E0022B0CBF136A536A65
:1044A40000F01F0023FA00F000F00100704700BF85
:1044B4000010024007B5002301933120FFF7E6FF07
:1044C400019B0133019318B9019BB3F5A06FF4D19B
:1044D4003120FFF7DBFF003018BF012003B05DF887
:1044E40004FB034B5A6A42F080725A62704700BF61
:1044F40000100240034B9B6818420CBF00200120AF
:10450400704700BF00100240014B1870704700BF95
:104514000A100240044B04281A680CBF42F004023B
:1045240022F004021A60704710E000E0014B58606A
:10453400704700BF10E000E00128084B03D11A685F
:1045440042F0010204E0023004D11A6822F00102B0
:104554001A60704700229A60704700BF10E000E0C4
:10456400044B1A6810B142F0020201E022F0020288
:104574001A60704710E000E0014B9868704700BF74
:1045840010E000E0C308022B044B0CBF1B68DB687F
:1045940023FA00F000F00100704700BF10E000E0D3
:1045A40030B5048C24F001042404240C0484058B09
:1045B400048CADB225F0F305A4B22A4324F002041E
:1045C40042EA031344F001049DB2214305830184AC
:1045D40030BD30B5048C24F010042404240C04846D
:1045E400048B058C24F44074ADB22405240D25F00D
:1045F400200545F0100544EA022242EA033345EA65
:1046040001119BB28DB20383058430BD08B52E4BD6
:1046140098423AD010D8A3F50063984225D003F508
:10462400806398422BD0B0F1804F4CD101200146D9
:10463400FFF70EFF01201DE0244B984231D004D82F
:10464400A3F58063984226D008BD214B984204D03C
:1046540003F5006398422AD008BD4FF4006001219D
:10466400FFF7EAFE4FF4006028E002200121FFF783
:10467400EFFE02200021BDE80840FFF7E9BE042058
:104684000121FFF7E5FE0420F4E708200121FFF7EC
:10469400DFFE0820EEE710200121FFF7D9FE1020ED
:1046A400E8E720200121FFF7D3FE2020E2E74FF4C2
:1046B40000500121FFF7C0FE4FF400500021BDE877
:1046C4000840FFF7B9BE08BD000C004000140040CC
:1046D400002C01400388CA8803F08F0303800388F9
:1046E4009BB213434A8813439BB203808B88838510
:1046F4000B88038501238382044B984203D003F57E
:104704000063984201D10B7A03867047002C014064
:10471400038C70B523F001031B041B0C0384038C6E
:104724008488028B0D8822F070021204120C4E88C9
:104734002A430D8923F002031B043543ADB21B0C3D
:104744002B43CD88A4B285860D4DA84203D005F530
:104754000065A8420FD14D8923F008032B438D88AF
:1047640023F004032B4347F6FF452540CC89898970
:104774000C43A4B22C4384800283038470BD00BF25
:10478400002C0140038C30B523F010031B041B0CD8
:104794000384038C8288048B0D8824F4E04424046D
:1047A400240C23F0200344EA05241B040D891B0C6C
:1047B40043EA05134D8892B243EA0513CD88A4B2A7
:1047C4000587114D9BB2A84203D005F50065A842A8
:1047D40016D14D8923F080039BB243EA05134FF6AB
:1047E400BF751D408B8845EA031347F2FF3515401A
:1047F4008A899BB245EA8205CA8945EA820292B255
:1048040082800483038430BD002C0140038C30B5C6
:1048140023F480731B041B0C0384038C8288848B15
:104824000D8824F070042404240C23F400732C4316
:104834001B040D891B0C43EA05234D8892B243EAFD
:104844000523CD889BB28587104DA84203D005F57A
:104854000065A84216D14D8923F400639BB243EA54
:1048640005234FF6FF351D408B8845EA032344F6A4
:10487400FF7515408A899BB245EA0215CA8945EA43
:10488400021292B282808483038430BD002C0140E2
:10489400038C30B523F480531B041B0C0384038C5A
:1048A4008488828B0D8822F4E0421204120C23F4D3
:1048B400005342EA05221B040D891B0C43EA05330D
:1048C4004D88A4B243EA0533CD8892B2A0F8405093
:1048D400084D9BB2A84203D005F50065A84205D156
:1048E4008989C4F30D0444EA8114A4B284808283C8
:1048F400038430BD002C01404A880B8813438A8806
:104904001343CA8813430A8913434A8913438A8980
:1049140013439BB2A0F8443070474FF6FF73838073
:1049240000230380C3804380037270470023038005
:1049340043808380C380038143818381C381704723
:1049440000230122038043808280C3800381704757
:104954000023038043808380C38003814381838158
:104964007047038819B19BB243F0010303E023F0BD
:1049740001039B059B0D03807047B0F8443029B1B7
:104984006FEA43436FEA53439BB201E0C3F30E0360
:10499400A0F84430704783899BB20AB1194301E0FF
:1049A40023EA010181817047818270470A43A0F89C
:1049B4004820704783899BB20AB1194301E023EA76
:1049C400010181817047038923F007031B041B0C39
:1049D40003817047038923F070031B041B0C1943E4
:1049E400018103899BB243F007030381704738B503
:1049F4000D46602D114604464FF0010202D1FFF727
:104A0400E8FD01E0FFF7CCFD238923F070031B04CC
:104A14001B0C2B43238123899BB243F0070323817F
:104A240038BD10B5048942EA0323E4B21C43A4B29E
:104A34002143018110BD10B50446FFF7F2FF23891D
:104A440023F077031B041B0C43F07703238110BD71
:104A540010B50446FFF7E5FF23899BB243F4804376
:104A6400238110BD018582827047038823F070037F
:104A74009B059B0D194301807047038923F0700344
:104A84001B041B0C19430181704770B50589048B05
:104A9400068C24F44074B6B224F0030426F02206F3
:104AA40025F00705240432432D04240C2D0C44F472
:104AB400807442EA0313294344F001049EB2018145
:104AC4000483068470BD038B23F070031B041B0C4A
:104AD400194301837047038B23F4E0431B041B0C2D
:104AE40043EA01218BB203837047838B23F0700365
:104AF4001B041B0C194381837047838B23F4E0430D
:104B04001B041B0C43EA01218BB283837047038887
:104B140019B19BB243F0800303E023F080039B05AB
:104B24009B0D03807047838819B19BB243F0040343
:104B340003E023F004031B041B0C83807047838869
:104B440019B19BB243F0080303E023F008031B04EC
:104B54001B0C83807047838819B19BB243F0010317
:104B640003E023F001031B041B0C83807047038BB9
:104B740023F008031B041B0C194301837047038BA8
:104B840023F400631B041B0C43EA01218BB203834F
:104B94007047838B23F008031B041B0C1943818388
:104BA4007047838B23F400631B041B0C43EA01212D
:104BB4008BB283837047038B23F004031B041B0C09
:104BC400194301837047038B23F480631B041B0C7C
:104BD40043EA01218BB203837047838B23F00403E0
:104BE4001B041B0C194381837047838B23F480635C
:104BF4001B041B0C43EA01218BB283837047038B94
:104C040023F080031B041B0C194301837047038B9F
:104C1400C3F30E0343EA01218BB203837047838BF2
:104C240023F080031B041B0C194381837047838B7F
:104C3400C3F30E0343EA01218BB283837047038CD1
:104C440023F002031B041B0C194301847047038CDB
:104C540023F008031B041B0C194301847047038CC5
:104C640023F020031B041B0C43EA01118BB20384C1
:104C74007047038C23F080031B041B0C43EA0111CF
:104C84008BB203847047038C23F400731B041B0C46
:104C940043EA01218BB203847047038C23F400633D
:104CA4001B041B0C43EA01218BB203847047038C61
:104CB40023F400531B041B0C43EA01318BB203841D
:104CC400704701238B408A4010B5048CA4B224EAB7
:104CD40003030384038C13439BB2038410BD042396
:104CE4008B408A4010B5048CA4B224EA03030384E5
:104CF400038C13439BB2038410BD01238B4010B576
:104D0400048C1830A4B224EA0303038121F00803BD
:104D14003BB9490844584FF68F73234043504358D6
:104D24000AE00439C1F34E01445848F6FF732340A6
:104D340043501202435892B21A43425010BD0388A2
:104D440019B19BB243F0020303E023F002039B0575
:104D54009B0D03807047038819B19BB243F0040391
:104D640003E023F004039B059B0D038070478388B5
:104D740019B19BB243F0800303E023F080031B04CA
:104D84001B0C83807047038823F008039B059B0D4D
:104D9400038003889BB2194301807047838823F002
:104DA40070031B041B0C838083889BB2194381808E
:104DB4007047038923F007031B041B0C0381038939
:104DC4009BB2194301817047038923F080031B04BC
:104DD4001B0C038103899BB21943018170478184B1
:104DE4007047818570478186704701877047818746
:104DF4007047A0F840107047038B23F00C031B048A
:104E04001B0C0383038B9BB2194301837047038BF1
:104E140023F440631B041B0C0383038B9BB243EA00
:104E240001218BB203837047F8B50C46A2884988E8
:104E3400B4F800E0054600290CBF02270027012A28
:104E440014BF012602262389BEF1000F11D1FFF7FA
:104E5400A7FB2846E188FFF7CFFF284639463246AC
:104E64002389FFF7B6FB2846E188BDE8F840FFF741
:104E7400CEBFFFF7AEFB2846E188FFF7C8FF284600
:104E8400394632462389FFF78BFB2846E188BDE883
:104E9400F840FFF7B1BF838B23F00C031B041B0CFA
:104EA4008383838B9BB2194381837047838B23F461
:104EB40040631B041B0C8383838B9BB243EA012155
:104EC4008BB283837047F8B50E880D460446498833
:104ED400AA882B893EB9FFF763FB2046E988BDE821
:104EE400F840FFF789BF042E07D1FFF772FB204675
:104EF400E988BDE8F840FFF78ABF082EEF88068CE2
:104F04001CD126F480763604360C0684858B068CF8
:104F1400ADB225F0F30545EA0313B6B29BB21A43CA
:104F240026F4007343EA012189B241F4807182833B
:104F340001843946BDE8F840FFF7ADBF26F480563A
:104F44003604360C0684858B068C25F440752D05B5
:104F5400B6B22D0D45EA022526F4005242EA01318B
:104F640045EA033389B29BB241F4805183830184BF
:104F74003946BDE8F840FFF799BF0388DBB20380E8
:104F840003889BB2194301807047808E80B27047BA
:104F9400008F80B27047808F80B27047B0F84000B5
:104FA40080B27047808C80B27047008D80B27047A9
:104FB400038A19420CBF002001207047C94389B2FB
:104FC40001827047038A828911EA030092B203D0F6
:104FD40011420CBF002001207047C94389B20182ED
:104FE400704700BF08B5224B98422CD008D8A3F5CF
:104FF4000063984217D003F5806398421BD008BD24
:105004001C4B984227D003F5684398422FD14FF4A4
:1050140080400121FFF710FABDE808404FF48040BA
:105024000021FFF709BA4FF400300121FFF710FA0D
:105034004FF4003016E04FF480200121FFF708FA06
:105044004FF480200EE04FF400200121FFF700FA16
:105054004FF4002006E04FF480100121FFF7F8F927
:105064004FF480100021BDE80840FFF7F1B908BDF6
:10507400004C004000500040038ACA889BB223F4CD
:105084004053134330B503820D4683890989AA88A6
:1050940023F4B0530A4323F00C0369891B040A4325
:1050A4001B0C13439BB28381838AAA899BB223F48A
:1050B400407387B013430446838201A8FFF754F971
:1050C400049A039B0D498C4208BF134619214B4394
:1050D4002A689200B3FBF2F16423B1FBF3F21201EC
:1050E400100903FB101109013231B1FBF3F303F092
:1050F4000F031A4392B2228107B030BD0038014039
:105104004FF4165303600C2200238380C380038171
:105114004281838170470B8810B54C88028A2343EF
:105124008C88C98892B223430B4322F470621343E0
:105134009BB2038210BD0023038043808380C3801D
:105144007047838919B19BB243F4005303E023F4FD
:1051540000531B041B0C83817047C1F3421310B529
:10516400012401F01F01A34204FA01F101D10C3022
:1051740003E0022B0CBF1030143003680AB119434A
:1051840001E023EA0101016010BD838A9BB20AB1E8
:10519400194301E023EA010181827047038A23F065
:1051A4000F031B041B0C0382038A9BB21943018265
:1051B4007047838923F400631B041B0C8381838958
:1051C4009BB2194381817047838919B19BB243F023
:1051D400020303E023F002031B041B0C83817047CA
:1051E400038A23F020031B041B0C0382038A9BB253
:1051F400194301827047038A19B19BB243F4804377
:1052040003E023F480431B041B0C03827047C1F3A7
:105214000801818070478088C0F308007047838943
:105224009BB243F0010383817047038BDBB203839A
:10523400038B9BB243EA012101837047038B03F480
:105244007F430383038B9BB2194301837047838A93
:1052540019B19BB243F0200303E023F020031B04A5
:105264001B0C83827047838A19B19BB243F01003ED
:1052740003E023F010031B041B0C83827047838A12
:1052840019B19BB243F0080303E023F008031B04A5
:105294001B0C83827047838A23F004031B041B0CBA
:1052A4008382838A9BB2194381827047838A19B1AE
:1052B4009BB243F0020303E023F002031B041B0C24
:1052C40083827047038819420CBF00200120704775
:1052D400C94389B20180704710B5C1F3421401F08B
:1052E4001F030122012C02FA03F201D1838903E096
:1052F400022C0CBF038A838A9BB21340028892B2A9
:1053040043B10123090A03FA01F111420CBF002041
:10531400012010BD184610BD090A01238B40DB4350
:105324009BB20380704700BF30BF704720BF7047F7
:1053340040BF7047BFF36F8F7047BFF34F8F704705
:10534400BFF35F8F704701DF7047EFF3148070473E
:1053540080F31488BFF36F8F7047EFF309807047B1
:1053640080F309887047EFF30880704780F308885A
:10537400704772B6704762B6704771B6704761B6CF
:10538400704780F311887047EFF31280704740BA7A
:10539400704700BA70470000684620F007018D4648
:1053A40001B500230B4A0C499818884204D20B49D2
:1053B400595899500433F5E7094B0A4A934203D2EA
:1053C400002243F8042BF8E700F00EF8BDE8014092
:1053D400854670470000002010000020BC540008DF
:1053E400100000205800002008B5FDF70BFFFDF762
:1053F4004BFFFDF770FFFDF7B1FF1E48FEF720F9E4
:105404001D4B02201968FEF702F8FDF7B0FF1B4898
:10541400FDF7CEFF1A4B00229A731A4B1A78012A11
:1054240020D100221A70184B1A78692A04D14FF43B
:105434002F70FEF707F9F0E71A786A2A04D14FF4BF
:10544400C870FEF72FF9E8E71A786B2A02D14FF4F7
:105454002F700BE01B786C2BDFD14FF4C870FEF774
:105464003DF9DAE76420FDF7CDFF0020FEF702F9ED
:10547400D3E700BF40420F0000000020A4540008FE
:105484004000002027000020180000200000000039
:1054940001020304010203040607080902040608C2
:1054A4002048454C4C4F203A290A0D004C4F4C4F94
:0854B400200A200D0000000099
:1054BC0000E1000001000000FF03000040420F006B
:04000005080031348A
:00000001FF
