:020000040800F2
:103000000000012055620008713200087532000886
:10301000793200087D32000881320008000000008B
:1030200000000000000000000000000089320008DD
:1030300085320008000000008D3200089933000836
:103040009132000895320008993200089D3200083C
:10305000A1320008A5320008A9320008AD320008EC
:10306000B1320008B5320008B93200080000000093
:103070000000000000000000000000000000000050
:103080000000000000000000D9320008DD32000816
:10309000E1320008E5320008E9320008ED320008AC
:1030A000F1320008F5320008F9320008FD3200085C
:1030B0008D33000801330008053300080933000888
:1030C0000D330008113300081533000819330008C8
:1030D0001D330008813300082133000875330008D0
:1030E00025330008293300082D3300083133000848
:1030F00035330008393300083D33000841330008F8
:1031000045330008493300084D33000851330008A7
:1031100055330008593300085D3300086133000857
:1031200065330008693300086D3300087133000807
:043130005FF8000044
:10313400034A136813B11368013B13607047C04618
:103144002C00002010B54FF080442046022102F0EC
:10315400F1FD40B1044800F085FA238A23F002030C
:103164001B041B0C238210BDBC62000830B581B067
:1031740000F0DCF900F0B0F900F034F900F028F9BF
:10318400344800F0F3FA344B0220196800F078FA5E
:1031940000F006F9314800F065FA314B00229A73C9
:1031A40000F020FC2F484FF4807101F04DFA2D48B7
:1031B4004FF4007101F04AFA00242B4D06E0E0B20E
:1031C40000F050FC631C25F814009CB2042CF6D9C2
:1031D4004FF4C87000F0E0FBB5F804C028898445BA
:1031E40003D8E9882B88994217D96A88C82A09D94B
:1031F400EB88C0EB0C009B182A889B1A00EB430059
:1032040000F07CFB2B89A8882A88C01AEB889B1ABB
:1032140000EB430000F08AFB19E0604501D88B42C3
:1032240015D96A88B2F5967F07D99B18CCEB0000B4
:103234005B1A00EB430000F061FBAB882889EA8845
:10324400C01A2B889B1A00EB430000F057FB0024A4
:10325400BCE7C04640420F0004000020C8620008DA
:103264004C000020000C01400E0000207047C046B6
:10327400FEE7C046FEE7C046FEE7C046FEE7C0469E
:103284007047C0467047C0467047C0467047C04646
:103294007047C0467047C0467047C0467047C04636
:1032A4007047C0467047C0467047C0467047C04626
:1032B4007047C0467047C0467047C0467047C04616
:1032C4007047C0467047C0467047C0467047C04606
:1032D4007047C0467047C0467047C0467047C046F6
:1032E4007047C0467047C0467047C0467047C046E6
:1032F4007047C0467047C0467047C0467047C046D6
:103304007047C0467047C0467047C0467047C046C5
:103314007047C0467047C0467047C0467047C046B5
:103324007047C0467047C0467047C0467047C046A5
:103334007047C0467047C0467047C0467047C04695
:103344007047C0467047C0467047C0467047C04685
:103354007047C0467047C0467047C0467047C04675
:103364007047C0467047C0467047C0467047C04665
:1033740000B581B000F01CF901B000BD00B581B00A
:1033840000F0FAF901B000BD00B581B0FFF7DAFE34
:1033940001B000BD00B581B0FFF7CAFE01B000BDA9
:1033A4004FF080434FF000021A8040F24C421A85DD
:1033B4004FF0FF329A854FF000021A834FF0020259
:1033C4009A814FF600729A864FF000029A847047F1
:1033D40000B5092081B001F01DFE012001F036FE88
:1033E40001B000BDF0B583B001AD384C284601F002
:1033F4000FF9032610274FF0CF0329463448ADF8C0
:1034040004308DF806608DF8077001F0ADF84FF4C4
:103414004C7320462946ADF804308DF806608DF8CB
:10342400077001F0A1F84FF40863ADF804302046AA
:10343400042329468DF8073001F096F84FF4886389
:10344400ADF804302046182329468DF807308DF84E
:10345400066001F089F80420012101F01FF901211F
:103464001C4801F01BF92046102101F0EFF820461A
:10347400202101F0E9F88DF8066006F1804606F592
:10348400863606F57F76013642F6063330462946FF
:10349400ADF8043000248DF8077001F065F84FF0A2
:1034A400090330462946ADF804308DF8074001F091
:1034B4005BF84FF0200306482946ADF804308DF838
:1034C400074001F051F803B0F0BDC046000C0140C4
:1034D400000801400004300070B54FF4405182B040
:1034E4004FF0006001F054FA01AE4FF4A06001F017
:1034F400B1F900252523012430468DF804308DF8D8
:1035040005508DF806508DF8074001F0ADF91C23E5
:1035140030468DF804308DF805408DF806508DF84E
:10352400074001F0A1F902B070BDC04600B581B0FA
:1035340001F090FB4FF4803001F0ACFB01F0C4FBD0
:10354400012824D1102000F093FD022000F078FD22
:10355400002001F003FC002001F014FC4FF4806013
:1035640001F006FC4FF480304FF4E01101F0D4FB7D
:10357400012001F0DBFB392001F004FD0028FAD022
:10358400022001F0D9FB01F0E1FB0828FBD1012165
:1035940044F21C2001F0ACFC0448012101F0B6FC0B
:1035A400012001F0E7FA01B000BDC04601000400AB
:1035B40010B5094840F2255102F04CFD50B1074BBB
:1035C40005481C6802F0D8FC054BC0B21855054BE1
:1035D40001221A7010BDC04600480040240000209B
:1035E400340000202800002010B50446012001F01A
:1035F40017FD074B1C601A461368002BFCD16FF0B3
:10360400010001F00DFD002001F00AFD10BDC046CF
:103614002C00002000B5C0EB401300EB830081B008
:10362400C000FFF7E1FF01B000BDC04600B581B2A4
:1036340081B0054802F09CFC0348402102F0FEFCE6
:103644000028F9D001B000BD0048004070B506461E
:103654000D46002403E0305DFFF7E8FF0134AC427F
:10366400F9DB70BD30B5054681B0002401E0FFF7F9
:10367400DDFF285D01340028F9D101B030BDC0461A
:1036840070B584B0054668460C4602F0CBFB4FF09B
:103694000003ADF80430ADF80630ADF80830ADF8ED
:1036A4000C304FF00C036E460094ADF80A308DB91F
:1036B400144802F04BFD0A20FFF7ACFF114869469D
:1036C40002F0F6FC0F4840F22551012202F0E4FB1F
:1036D4000C4812E0022D13D10B4802F037FD0A20EA
:1036E400FFF798FF0848694602F0E2FC064840F2FA
:1036F4002551012202F0D0FB0348012102F0BEFB58
:1037040004B070BD003801400048004030B585B0B9
:103714000446684602F086FB0094134C4FF0000305
:10372400ADF80430ADF80630ADF80830ADF80C3023
:1037340020464FF00C03ADF80A3002F007FD0A20D2
:10374400FFF768FF2046694602F0B2FC204640F2CB
:103754002551012202F0A0FB204601216D4602F012
:103764008DFB05B030BDC0460038014000B581B0C6
:10377400FFF7CCFF01B000BD30B50A4881B040F27C
:10378400255102F067FC50B1074C0648256802F049
:10379400F3FB064BC0B2585523680133236001B0D4
:1037A40030BDC04600380140440000204C000020D9
:1037B40010B5202104460D4800F048FFA4B20B4880
:1037C400102100F041FF0A48214602F0D1FB0848CD
:1037D400402102F033FC0028F9D01021034800F006
:1037E40035FF0248202100F02FFF10BD000C0140DE
:1037F400003801401B4B002230B51A601A4A4FF0C2
:10380400FF33137053700423D37002231371012305
:103814009070517181B093714FF0040E002100201B
:1038240006E002EB01039B780344D8B24B1CD9B2E7
:103834008E45DFF834C0F4DA6FEA00038CF8073001
:10384400084B00228CF808201A6000246546285D85
:103854000134FFF7ADFF082CF9D16420FFF7C4FE53
:1038640001B030BD440000205B00002030B5DFF81B
:1038740080C04FF0FF338CF800308CF80130052302
:103884008CF803308CF806200323120A8CF80510F8
:103894008CF8072081B08CF802008CF804304FF0CB
:1038A400050E0021002206E00CEB02039B780B447A
:1038B40099B2531C9AB296450D48F5DA6FEA0103A2
:1038C40003720C4B002242721A6000240546285DE4
:1038D4000134FFF76DFF092CF9D1002341F288323E
:1038E40000BF01339BB29342FAD101B030BDC04650
:1038F4005B000020440000207047C04610B50A4C0D
:1039040040F2FF332288984228BF1846121A202119
:103914000A2092B2FFF7AAFF2288092082F480626B
:103924002021FFF7A3FF10BD6C00002030B540F24A
:10393400FF3305469D4228BF1D46094B0A201C88BB
:1039440020212246641B84F4806481B0A4B2FFF772
:103954008DFF092020212246FFF788FF01B030BDEA
:103964006C00002010B540F2FF3304469C4228BF8F
:103974001C46084B22461C8004F580640A20202142
:10398400A4B2FFF773FF092020212246FFF76EFF40
:1039940010BDC0466C00002010B540F2FF33044651
:1039A4009C4228BF1C4604F58062064B92B21A80E2
:1039B4000A202021FFF75AFF092020212246FFF781
:1039C40055FF10BD6C00002000B5024640F2FF33E5
:1039D40081B09A4228BF1A4602201E21FFF746FFF3
:1039E40001B000BD10B586B001AC204600F082F9EC
:1039F4004FF46023002203931948012321460192C6
:103A04008DF808208DF8092004928DF8143000F008
:103A14004DF913480A210122072300F0CFF9104879
:103A2400012100F071F90E4800F08EF90C4800F005
:103A340091F90028FAD100F1804000F5923000F0AD
:103A44008FF9074800F092F90028FAD100F180407C
:103A540000F59230012100F08FF906B010BDC04688
:103A64000024014010B5052807D8DFE810F008004D
:103A7400360063008E00BD00EC00002409E1864896
:103A8400FFF7F0FD8548012100F0DEFD83480221A7
:103A940000F0DCFD8248022100F0D8FD80480421BA
:103AA40000F0D4FD012207230A217E4800F086F9A4
:103AB4001E20FFF799FD01217A4800F05DF90520E9
:103AC400FFF792FD774800F0CFF9012104467348CF
:103AD40000F0BCFD7148022129E07048042100F087
:103AE400B3FD6E48082100F0B1FD6D48022100F0DD
:103AF400ABFD6B48042100F0A9FD012207230A2134
:103B0400684800F05BF91E20FFF76EFD012165484F
:103B140000F032F90520FFF767FD624800F0A4F9D0
:103B2400042104465D4800F091FD5C48082100F042
:103B34008DFDAEE05A48402100F086FD58488021B2
:103B440000F084FD5648022100F080FD5448042111
:103B540000F07AFD012207230A21524800F02EF9D1
:103B64001E20FFF741FD01214E4800F005F9052014
:103B7400FFF73AFD4B4800F077F9402104464848E6
:103B840000F064FD46488021D1E745484FF4807138
:103B940000F05AFD42484FF4007100F057FD4048D0
:103BA400022100F053FD3E48042100F04FFD0122A4
:103BB400072305213B4800F001F91E20FFF714FDFF
:103BC4000121384800F0D8F80520FFF70DFD3548ED
:103BD40000F04AF94FF480710446314800F036FD94
:103BE4002F484FF40071A2E72C484FF4807100F085
:103BF4002BFD2A484FF4006100F028FD28480221DB
:103C040000F022FD2648042100F020FD01220723B4
:103C14000521244800F0D2F81E20FFF7E5FC01211D
:103C2400204800F0A9F80520FFF7DEFC1D4800F04D
:103C34001BF94FF480710446184800F007FD17483B
:103C44004FF4006173E718484FF4807100F0FCFCF6
:103C540015484FF4007100F0F9FC1148022100F0FE
:103C6400F5FC0F48042100F0EFFC01220723052195
:103C74000C4800F0A3F81E20FFF7B6FC0121094808
:103C840000F07AF80520FFF7AFFC064800F0ECF8E6
:103C94000446204610BDC046D46200080008014016
:103CA4000010014000240140000C014043680A68F0
:103CB40023F4702323F4807313430A7943EA022321
:103CC4004360CB688A68D0F808C01A43084B0CEAF2
:103CD40003031A434B7942EA430282600B7CC26AB3
:103CE400013B22F47002DBB242EA0352C262704723
:103CF400FDF7F1FF00230360037143718360C36028
:103D0400012303747047C04619B1836843F001036B
:103D140002E0836823F001038360704719B183686C
:103D240043F4807302E0836823F4807383607047F4
:103D3400C9B21AB1436841EA030302E0436823EAC3
:103D4400010343607047C046836843F008038360FF
:103D54007047C0468068C00800F001007047C04644
:103D6400836843F0040383607047C046806880081A
:103D740000F001007047C04619B1836843F4A00302
:103D840002E0836823F4A003836070478068800D99
:103D940000F001007047C0464368013923F46043D2
:103DA40043EA41334360704719B1436843F4006305
:103DB40002E0436823F4006343607047092930B587
:103DC40094460C461D464FEA41020BD912191E3A7D
:103DD4000723934015FA02F2C16821EA0301114353
:103DE400C16009E012190723934015FA02F2016930
:103DF40021EA030111430161BCF1060F0CD80CEB5D
:103E04008C02053A1F23934014FA02F2416B21EA13
:103E14000301114341631BE0BCF10C0F4FEA8C0218
:103E24000BD86244233A1F23934014FA02F2016B25
:103E340021EA0301114301630AE06244413A1F236A
:103E4400934014FA02F2C16A21EA03011143C162E8
:103E540030BDC04619B1836843F4801302E083681F
:103E640023F4801383607047C06C80B27047C046EF
:103E7400014B18687047C0464C24014019B143688F
:103E840043F4806302E0436823F480634360704733
:103E940019B1436843F4805302E0436823F4805328
:103EA40043607047836823F4E0431943816070479B
:103EB40019B1836843F4004302E0836823F40043A8
:103EC4008360704719B1836843F4021302E0836886
:103ED40023F40213836070478068400D00F00100F2
:103EE4007047C046092930B58C4615461C464FEA32
:103EF40041020BD962441E3A0723934014FA02F29A
:103F0400C16821EA03011143C16009E06244072347
:103F1400934014FA02F2016921EA03011143016199
:103F2400836B1F2103F440126FEA12522A440332B6
:103F3400D2B202EB820291400CFA02F223EA0103AC
:103F44001343836330BDC046836B013923F44013AC
:103F540043EA01538363704782B00A5002B070474A
:103F640082B001902830405880B202B07047C046F9
:103F7400436823F4400323F40073194341607047FA
:103F8400416282627047C046436823F01F031943AD
:103F94004160704720B1054A936843F4000303E08D
:103FA400024A936823F4000393607047002401409D
:103FB400036819420CBF0020012070476FEA010119
:103FC400016070474268036813EA112301D100209D
:103FD40004E0CBB213420CBF002001207047C0465E
:103FE4006FEA11210160704700B5144B83B0984209
:103FF40001900FD003F5A053984213D0A3F5C053FA
:10400400984219D14FF40070012100F08DFF4FF454
:1040140000700EE04FF48060012100F085FF4FF442
:10402400806006E04FF40040012100F07DFF4FF472
:104034000040002100F078FF03B000BD00280140DB
:10404400044A136803F038031360136818431060BC
:104054007047C04600200240044A136823F0080356
:1040640013601368184310607047C0460020024074
:10407400044A136823F01003136013681843106094
:104084007047C04600200240034B044A5A6002F1C4
:1040940088325A607047C0460020024023016745B9
:1040A400024A136943F08003136170470020024001
:1040B400014BD8698008704700200240014B186A00
:1040C4007047C04600200240024BD869400800F007
:1040D4000100704700200240024B1868400900F0BC
:1040E400010070470020024021B1054A136940EAEB
:1040F400030303E0024A136923EA000313617047D0
:1041040000200240012804D1054BDB6903F00100C3
:1041140005E0034BDB6818420CBF00200120704708
:1041240000200240014BD8607047C0460020024086
:10413400094AD36813F0010F01D001200BE0D368C2
:1041440013F0040F01D0022005E0D36813F0100F20
:1041540014BF0320042070470020024010B5234AF6
:1041640082B0D368014613F0010F01D001202AE088
:10417400D36813F0040F01D0022024E0D36813F0B5
:10418400100F14BF032004201DE00194CDF804C0D7
:1041940002E0019B013B0193019B002BF9D1D36801
:1041A40013F0010F01D001200BE0D36813F0040FCA
:1041B40001D0022005E0D36813F0100F14BF0320D0
:1041C4000420013903E0094A00244FF0FF0C0B1EC0
:1041D40018BF0123012814BF002303F00103002B9F
:1041E400D3D1002908BF052002B010BD0020024031
:1041F400F0B5134B134C81B0A36003F1883305462B
:10420400A3600F200E461746FFF7A8FF042815D118
:1042140023690D4A43F01003236145F0F80346EA8D
:10422400030347EA030353800F20FFF797FF012896
:104234001FBF226941F6EF731340236101B0F0BD43
:10424400230167450020024000F8FF1F30B50546F2
:1042540081B040F6FF70FFF781FF04283CD11F4C6A
:104264001F4B00F57E60A36003F18833A3602369CC
:104274001B3043F020032361236943F0400323618F
:10428400FFF76CFF042820D1236941F6DF7203EAAB
:1042940002022261236943F0100323611DB1114B13
:1042A4004FF0000202E00F4B4FF0A5021A8040F6D7
:1042B400FF70FFF753FF01280ED0084941F6EF7352
:1042C4000A6902EA03030B6106E001281FBF2269A1
:1042D40041F6DF731340236101B030BD002002407A
:1042E4002301674500F8FF1F10B504460F20FFF7B0
:1042F40035FF042850D1294A294B6FEA04049360FE
:1043040003F1883393601369E1B243F01003FF298A
:10431400136104D0234B0F201981FFF71FFF04F40E
:104324007F431A0AB2F1FF0318BF0123042814BF04
:10433400002303F0010323B11A4B0F205A81FFF726
:104344000DFF04F47F031A0CB2F1FF0318BF01231D
:10435400042814BF002303F0010323B1114B0F20E1
:104364009A81FFF7FBFE220EB2F1FF0318BF01236F
:10437400042814BF002303F0010323B1094B0F20C9
:10438400DA81FFF7EBFE01281FBF044941F6EF7302
:104394000A69134018BF0B6110BDC04600200240DB
:1043A4002301674500F8FF1F70B506460F200D4630
:1043B400FFF7D4FE042814D10A4C0B4B0F20A36042
:1043C40003F18833A360236943F01003236135802C
:1043D400FFF7C4FE01281FBF226941F6EF731340A3
:1043E400236170BD002002402301674570B5064675
:1043F4000F200D46FFF7B2FE04280FD1084C0F2002
:10440400236943F0010323613580FFF7A7FE0128E8
:104414001FBF226941F6FE731340236170BDC0467D
:104424000020024070B506460F200D46FFF796FEA9
:10443400042817D10C4C0F20236943F00103236196
:10444400ABB23380FFF78AFE042804D12B0C7380AF
:104454000F20FFF783FE01281FBF226941F6FE7378
:104464001340236170BDC0460020024010B540F6E1
:10447400FF70FFF773FE04282CD1174C174B00F57F
:104484007E60A36003F18833A36023691B3043F08B
:1044940020032361236943F040032361FFF75EFE99
:1044A400042810D1226941F6DF7302EA0303236171
:1044B40023694FF0A50243F010032361084B0F203A
:1044C4001A80FFF74BFE01281FBF226941F6EF73E4
:1044D4001340236110BDC0460020024023016745FC
:1044E40000F8FF1F10B540F6FF70FFF737FE0428F1
:1044F40013D10A4C236903432361236900F57E60C9
:1045040043F0400323611B30FFF728FE01281FBF3F
:10451400226941F6FB731340236110BD0020024061
:1045240030B5054681B040F6FF70FFF717FE04284A
:1045340015D10C4C00F57E6023691B3043F0020357
:1045440023616561236943F040032361FFF706FE9D
:1045540001281FBF226941F6FD731340236101B096
:1045640030BDC04600200240F0B5CD780E8815F06D
:10457400100F18BF8B7805F00F0718BF1F4316F0F4
:10458400FF0F83B01ED004680021012212FA01F348
:1045940003EA060C9C4511D18A000F23934017FAB5
:1045A40002F224EA03041443282D019308BFC0F83F
:1045B40014C003D0482D08BFC0F810C00131082929
:1045C400E3D10460FF2E20D944680021012201F1C7
:1045D400080312FA03F303EA060C9C4511D18A007E
:1045E4000F23934017FA02F224EA03041443282DFC
:1045F400019308BFC0F814C003D0482D08BFC0F809
:1046040010C001310829E1D1446003B0F0BDC046B7
:104614004FF0FF330380022383700423C370704779
:10462400836819420CBF002001207047806880B263
:104634007047C046C36819420CBF00200120704770
:10464400C06880B27047C0460161704741617047DD
:104654000AB1016100E041617047C046C160704722
:1046640041F4803383618161836183698369704725
:10467400DFF818C04FF68073DCF8002041EA00111F
:1046840002EA03031943CCF800107047000001400C
:10469400014B18607047C0461C00204230B500F43E
:1046A400401304040D461449240CB3F5401FD1F8FB
:1046B40004C006D14B682CF0706223F070634B6029
:1046C40010E010F4801F05D000F47022120C0323B4
:1046D400934003E0430D1B0114FA03F32CEA030394
:1046E40043F0706225B1430D1B0114FA03F31A431E
:1046F400014B5A6030BDC0460000014010B501F0C6
:104704000304A4000F23A340A040DFF820C08908BD
:1047140002315CF8212022EA03024CF821205CF8E3
:10472400213018434CF8210010BDC0460000014060
:1047340000B50120012181B000F0F6FB0120002129
:1047440000F0F2FB01B000BD00B5274B83B09842E6
:1047540001902BD00CD8A3F5006398421AD003F52E
:10476400806398421CD0A3F5006398423AD10BE0D1
:104774001E4B984226D003F58063984228D0A3F5B7
:10478400006398422ED117E00420012100F0CCFBF5
:10479400042024E00820012100F0C6FB08201EE0CC
:1047A4001020012100F0C0FB102018E0202001217E
:1047B40000F0BAFB202012E04020012100F0B4FBFD
:1047C40040200CE08020012100F0AEFB802006E0B8
:1047D4004FF48070012100F0A7FB4FF4807000219A
:1047E40000F0A2FB03B000BD00140140001C014016
:1047F4000B4B4FF0FF316FF07042C3F88010184636
:10480400C3F88420C3F88011C3F884210021002256
:1048140002F1C00301320F2A40F82310F8D1704787
:1048240000E100E0094A4FF0206309495360002386
:104834009360D160136153619361D36113625362D6
:10484400013B9362D36213637047C04600ED00E0FE
:104854000000FA0540F0BE60024B40F42020D8600E
:104864007047C04600ED00E030B5C37805785BB30F
:104874001A4B4178DA681A4C6FEA020202F4E062D9
:10488400120AC2F1040399400F23D340827805F041
:10489400030013400B43C0001B01FF2282408340EE
:1048A4004FEA950C0CF1C00C54F82C10134021EA7B
:1048B40002010B4344F82C3005F01F0201239340FE
:1048C400690944F8213008E005F01F0201239340F0
:1048D4006909034A203142F8213030BD00ED00E07F
:1048E40000E100E00023037043708370C3707047DD
:1048F400034B04485B6803EA0000000B7047C046A2
:1049040000ED00E000F03F0000F01F0301229A4098
:104914004009054B403053F820001040904214BF2A
:10492400002001207047C04600E100E0014B186000
:104934007047C04600EF00E04109012300F01F006A
:104944008340024A603142F82130704700E100E0C0
:10495400024B58688005800D7047C04600ED00E0AA
:1049640000F01F0301229A404009054B803053F8A0
:1049740020001040904214BF002001207047C04620
:1049840000E100E0014B18687047C04600ED00E00C
:1049940021F0604121F07F01014B01439960704790
:1049A40000ED00E0014A024BDA6070470400FA05AA
:1049B40000ED00E0014A024BDA6070470100FA059D
:1049C40000ED00E021B1054A136940EA030303E066
:1049D400024A136923EA00031361704700ED00E003
:1049E40000F01F00012313FA00F021B1054A536AB5
:1049F40040EA030303E0034A536A23EA00035362D1
:104A04007047C04600ED00E010B5144CE3686FEA4F
:104A1400030303F4E0631B0AC3F1040C01FA0CF171
:104A24004FF0FF0C2CFA03F31A400A4300F0C001C4
:104A3400400900F018000CFA00FC120182408909B8
:104A4400063154F8213023EA0C0344F8213054F899
:104A540021301A4344F8212010BDC04600ED00E087
:104A6400800A00F00F0001238340044A506A03EADD
:104A74000000984214BF00200120704700ED00E0C0
:104A840000F01F0001238340024A51680B43536026
:104A94007047C04600ED00E000F01F00013801231C
:104AA4008340024A51680B435360704700ED00E0B5
:104AB400800B00F00F0001238340044A506A03EA8C
:104AC4000000984214BF00200120704700ED00E070
:104AD400830C13F0030302D10D4BD86A17E0012BAA
:104AE40013D103F1604303F56C43FE33020D01332C
:104AF40002F00302996AD30031FA03F0022A14BFC8
:104B040000F00F0000F0FF0001E0014B186B70474C
:104B140000ED00E010F4800F0BBF024B014B586B0B
:104B2400986B704700ED00E000B581B001F088FBA0
:104B340001B000BD00B5000181B001F07EFB01B001
:104B440000BDC04600B581B001F075FB01B000BDE9
:104B540000B581B001F06DFB01B000BD00B581B0BE
:104B640001F065FB01B000BD00B581B001F05DFB53
:104B740001B000BD014B18607047C04620000E42D2
:104B8400014B18607047C04610000E42034A136878
:104B940023F0E003184310607047C04600700040E3
:104BA400014B18607047C046A0000E42034B5B687F
:104BB40018420CBF002001207047C046007000401E
:104BC400024A136843EA8003136070470070004090
:104BD4000B4A00B5136881B043F0040313601368F3
:104BE40043F00203136002F1204202F5FA4210324C
:104BF400136843F00403136001F0F2FA01B000BD3E
:104C0400007000400C4A00B5136881B023F0030320
:104C14001843106002F1204202F5FA421032136880
:104C2400012943F00403136002D101F0D9FA01E031
:104C340001F0D8FA01B000BD0070004010B54FF08B
:104C440080542046012100F07DF92046002100F027
:104C540079F910BD0D4A136843F0010313605168DC
:104C64000B4B01EA03035360136823F0847323F4AA
:104C740080331360136823F480231360536823F490
:104C8400FE035360002393607047C0460010024047
:104C94000000FFF80B4AB0F5803F136823F480331B
:104CA4001360136823F48023136003D0B0F5802FBE
:104CB40007D102E01368034302E0136843F4A0231E
:104CC400136070470010024082B000230949019329
:104CD4000A68019B013312F4003F019303D1019B45
:104CE400B3F5A06FF4D1034B1868400C00F0010039
:104CF40002B0704700100240034A136823F0F8031F
:104D040043EAC0031360704700100240014B18606F
:104D14007047C04600004242034A536823F47C13A0
:104D2400184308435060704700100240014B18605C
:104D34007047C04660004242034A536823F00303AD
:104D4400184350607047C04600100240024B586838
:104D540000F00C007047C04600100240034A53683C
:104D640023F0F003184350607047C046001002401F
:104D7400034A536823F4E063184350607047C04605
:104D840000100240034A536823F4605343EAC0030B
:104D9400536070470010024021B1054A137840EA7D
:104DA400030303E0024A137823EA000313707047F5
:104DB40009100240014B18607047C046D8004242B7
:104DC400034A536823F44043184350607047C04675
:104DD40000100240064A002301281370137008BF14
:104DE400107003D0042801D1052313707047C04606
:104DF40020100240014B18607047C04680044242B4
:104E0400024A136A184310627047C04600100240F9
:104E1400014B18607047C0463C044242294984460D
:104E24004B6803F00C03042B21D0082B1FD14B68D3
:104E340003F470139B0C9A1C4B6813F4803F08BF57
:104E4400C2EB421306D04B6813F4003F4FEA4213FF
:104E540006D09B1AC3EB831302EBC3031B0207E0C8
:104E64009B1AC3EB831302EBC3035B0200E0164BF4
:104E74001448CCF800304368144A03F0F0031B09CB
:104E8400D35CDCF80010D940CCF80410436803F478
:104E9400E0631B0AD35C31FA03F3CCF808304368AF
:104EA40003F46053DB0AD35C094AD940CCF80C10F4
:104EB400436803F440439B0BD35CB1FBF3F1CCF8A0
:104EC400101070470010024000127A00A862000817
:104ED400B862000821B1054A536940EA030303E0BC
:104EE400024A536923EA00035361704700100240E9
:104EF40021B1054A936940EA030303E0024A936936
:104F040023EA0003936170470010024021B1054A6F
:104F1400D36940EA030303E0024AD36923EA0003A6
:104F2400D36170470010024021B1054AD36840EABA
:104F3400030303E0024AD36823EA0003D360704703
:104F44000010024021B1054A136940EA030303E05B
:104F5400024A136923EA00031361704700100240F8
:104F6400014B18607047C04640044242014B186030
:104F74007047C0464C004242014B18707047C0460F
:104F8400071002404309012B08D103F1804303F5C4
:104F9400023303F5FF6307331B680CE0022B08D1CF
:104FA40003F1804303F5023303F5FF6306331B6A01
:104FB40001E0044B5B6A00F01F0033FA00F000F0DC
:104FC4000100704700100240024A536A43F08073A4
:104FD4005362704700100240034B9B6818420CBF99
:104FE400002001207047C04600100240014B187099
:104FF4007047C0460A100240042803D1044A1368CB
:10500400034303E0024A136823F004031360704768
:1050140010E000E0014B58607047C04610E000E02B
:10502400012803D1084A1368034306E010F1020F74
:1050340005D1054A136823F00103136002E0024B13
:1050440000229A607047C04610E000E020B1054A93
:10505400136843F0020303E0024A136823F00203D7
:105064001360704710E000E0014B98687047C04639
:1050740010E000E0C308022B024606D103F16043AE
:1050840003F560430E33186801E0034BD868D04041
:1050940000F001007047C04610E000E0038882B0D1
:1050A40003F08F0303800388CA889BB213434A88A2
:1050B400019013439BB203808B880B4A83850B8832
:1050C4008C4603854FF001038382084B984214BF3A
:1050D40000230123904208BF43F0010313B19CF85D
:1050E4000830038602B07047002C014000340140B0
:1050F400038C8C4623F001031B041B0C0384018CDA
:105104008388F0B59DB2038BBCF808209EB2BCF82E
:10511400023021F00201134309049BB2090C43EA53
:105124000104BCF80630BCF8007083861A4B1B4A95
:10513400984214BF0023012383B0904208BF43F078
:1051440001030190EBB102F14042A2F53052BCF8E8
:105154000A30093A04EA02021A434FF6FB7302EAE0
:105164000303BCF8042047F6FF4143EA0204BCF8F9
:105174000E30BCF80C2005EA010113439BB243EA4C
:1051840001054FF68F7306EA03033B4385800383CF
:10519400048403B0F0BDC04600340140002C01403B
:1051A400038CF0B523F010031B041B0C0384038C45
:1051B400828823F0200395B2028B1B0496B20A89DD
:1051C4001B0C43EA02134A889BB243EA02139CB2C3
:1051D400CB880F8803871E4B1E4A984214BF0023B6
:1051E400012383B0904208BF43F0010301908C4631
:1051F4000BB302F14042A2F53252BCF80A30013A34
:1052040004EA020242EA03124FF6BF7302EA0303FE
:10521400BCF8042043EA02139CB2BCF80C2047F209
:10522400FF3305EA030343EA8203BCF80E209BB272
:1052340043EA82039DB248F6FF7306EA030343EA96
:1052440007239BB285800383048403B0F0BDC0466A
:1052540000340140002C0140038CF0B523F480732A
:105264001B041B0C0384038C828823F4007395B203
:10527400828B1B0496B20A891B0C43EA02234A88D8
:105284009BB243EA02239CB2CB880F8883871D4BD1
:105294001D4A984214BF0023012383B0904208BFE3
:1052A40043F0010301908C460BB302F14042A2F596
:1052B4005052BCF80A30013A04EA020242EA0322DC
:1052C4004FF6FF3302EA0303BCF8042043EA022347
:1052D4009CB2BCF80C2044F6FF7305EA030343EACE
:1052E4000213BCF80E209BB243EA02139DB24FF6A0
:1052F4008F7306EA03033B4385808383048403B0EE
:10530400F0BDC04600340140002C0140038CF0B5D0
:1053140023F480531B041B0C0384038C85B09BB2C1
:10532400029383884A881FFA83FC838B0E889DB27C
:10533400CB880F89A0F84030174B0192174A984246
:1053440014BF00230123904208BF43F001030390DC
:105354000C463BB14FEA8C43A2899B0C43EA82136F
:105364001FFA83FC48F6FF7305EA030343EA0623A6
:105374009BB2029AA0F804C083834DF6FF7302EA3D
:10538400030343EA0733019A9BB243EA02339BB215
:10539400038405B0F0BDC04600340140002C014038
:1053A4000B8830B504460D4643BB238C498823F053
:1053B40001031B041B0CB5F804C028892384238B28
:1053C400228C23F0F3031B041B0C22F0020243EA99
:1053D400001312049BB2120C41F0010143EA0C03C6
:1053E4000A4323832284238BEA8823F00C031B04BF
:1053F4001B0C2383238B9BB213432EE0042B2ED14F
:10540400238CB1F802C023F010031B041B0C888802
:1054140009892384238B228C23F440731B0522F0F7
:1054240020021B0D120443EA0133120C9BB242EA20
:105434000C1243EA002392B29BB242F0100223837F
:105444002284238BEA8823F440631B041B0C2383EC
:10545400238B9BB243EA02239BB2238355E0082BA0
:10546400B1F802C08888098925D1238C23F480737C
:105474001B041B0C2384A38B228C23F0F30322F440
:1054840000721B0412041B0C120C43EA011342EABF
:105494000C229BB292B2034342F48072A38322840F
:1054A400A38BEA8823F00C031B041B0CA383A38B9C
:1054B4009BB2134328E0238C23F480531B041B0C5E
:1054C4002384A38B228C23F440731B0522F4005203
:1054D4001B0D120443EA0023120C9BB242EA0C3265
:1054E40043EA013392B29BB242F48052A3832284F2
:1054F400A38BEA8823F440631B041B0CA383A38BB4
:105504009BB243EA02239BB2A38330BD8C46F0B521
:10551400BCF800304C888988002C0CBF0227002777
:1055240001290CBF02260126BCF80850002B4BD1E0
:10553400038C23F001031B041B0C0384038B028CD8
:1055440023F0F3031B041B0C43EA051322F00202AD
:105554009BB212040B43120C44F001010A4303836F
:105564000284038BBCF8061023F00C031B041B0CF1
:105574000383038B9BB20B430383038C23F010033D
:105584001B041B0C0384038B028C23F440731B0544
:1055940022F030021B0D120443EA0533120C9BB2B5
:1055A40042F0100243EA062342EA0712038302840C
:1055B400038B23F440631B041B0C0383038B9BB2F8
:1055C40043EA01239BB24CE0038C23F010031B0439
:1055D4001B0C0384038B028C23F440731B0522F001
:1055E40020021B0D120443EA0533120C9BB242EA5B
:1055F400041243EA012392B29BB242F010020383E5
:105604000284038BBCF8061023F440631B041B0CB8
:105614000383038B9BB243EA01239BB20383038C72
:1056240023F001031B041B0C0384038B028C23F063
:10563400F3031B0422F003021B0C120443EA0513B8
:10564400120C9BB242F0010233433A4303830284B7
:10565400038B23F00C031B041B0C0383038B9BB2EF
:105664000B430383F0BDC0460A884B8813438A88E2
:105674001343CA8813430A8913434A8913438A8903
:1056840013439BB2A0F844307047C0464FF0FF3339
:1056940083804FF000030380C380438000230372A0
:1056A4007047C0464FF00003038043808380C3806B
:1056B400038143818381C3817047C0464FF0000357
:1056C400038043804FF0010383804FF00003C380C5
:1056D400038170474FF00003038043808380C380BD
:1056E400038143818381704721B103889BB243F0D6
:1056F400010304E0038823F001039B059B0D038051
:105704007047C04629B1B0F844309BB243F400431B
:1057140003E0B0F844305B045B0CA0F844307047FD
:1057240022B183899BB241EA030303E083899BB2DC
:1057340023EA010383817047818270470A43A0F8FA
:105744004820704722B183899BB241EA030303E0F6
:1057540083899BB223EA010383817047038923F081
:1057640007031B041B0C03817047C046038923F005
:1057740070031B041B0C1943018103899BB243F082
:10578400070303817047C04610B50C46602C1146D0
:105794009C461AD1038C23F010031B041B0C0384B6
:1057A400038B028C23F4407322F030021B05120495
:1057B4001B0D120C43F4807342F0100243EA0C33C5
:1057C40042EA01129BB292B217E0038C23F0010368
:1057D4001B041B0C0384038B028C23F0F3031B04B4
:1057E40022F003021B0C120443F00103120C43EADF
:1057F4000C1342F001029BB20A430383028403891F
:1058040023F070031B041B0C44EA03030381038984
:105814009BB243F00703038110BDC046B0F808C033
:105824005FFA8CFC41EA0C010A4342EA032292B279
:105834000281038923F077031B041B0C43F07703D5
:1058440003817047B0F808C05FFA8CFC41EA0C0190
:105854000A4342EA032292B2028103899BB243F4CF
:10586400804303817047C046B0F808C05FFA8CFCDF
:1058740041EA0C010A4342EA032292B202817047D0
:10588400018582827047C046038823F070039B051C
:105894009B0D194301807047038923F070031B0497
:1058A4001B0C194301817047B0F808C030B5048B54
:1058B400058C24F4407425F0220524F003042D04FF
:1058C4002CF0070C24042D0C4FEA0C4C240C2A4316
:1058D4004FEA1C4C44F4807442EA031241EA0C017E
:1058E40044F0010492B201810483028430BDC046B5
:1058F400038B23F070031B041B0C194301837047B3
:10590400038B23F4E0431B041B0C43EA01239BB2E7
:1059140003837047838B23F070031B041B0C194310
:1059240081837047838B23F4E0431B041B0C43EAFD
:1059340001239BB28383704721B103889BB243F058
:10594400800304E0038823F080039B059B0D038000
:105954007047C04621B183889BB243F0040304E03E
:10596400838823F004031B041B0C83807047C04608
:1059740021B183889BB243F0080304E0838823F0B9
:1059840008031B041B0C83807047C04621B1838825
:105994009BB243F0010304E0838823F001031B045A
:1059A4001B0C83807047C046038B23F008031B0441
:1059B4001B0C194301837047038B23F400631B04FE
:1059C4001B0C43EA01239BB203837047838B23F0B0
:1059D40008031B041B0C194381837047838B23F436
:1059E40000631B041B0C43EA01239BB283837047AF
:1059F400038B23F004031B041B0C1943018370471E
:105A0400038B23F480631B041B0C43EA01239BB226
:105A140003837047838B23F004031B041B0C19437B
:105A240081837047838B23F480631B041B0C43EA3C
:105A340001239BB283837047038B23F080031B04F1
:105A44001B0C194301837047038B5B045B0C43EA13
:105A540001239BB203837047838B23F080031B04D1
:105A64001B0C194381837047838B5B045B0C43EAF3
:105A740001239BB283837047038C23F002031B042E
:105A84001B0C194301847047038C23F008031B0487
:105A94001B0C194301847047038C23F020031B045F
:105AA4001B0C43EA01139BB203847047038C23F05D
:105AB40080031B041B0C43EA01139BB2038470474D
:105AC400038C23F400731B041B0C43EA01239BB2D5
:105AD40003847047038C23F400631B041B0C43EA08
:105AE40001239BB203847047038C23F400531B04EB
:105AF4001B0C43EA01339BB20384704701238B40A0
:105B04008A40B0F820C01FFA8CFC2CEA030CA0F8E1
:105B140020C0038C1A4392B20284704704238B4042
:105B24008A40B0F820C01FFA8CFC2CEA030CA0F8C1
:105B340020C0038C1A4392B20284704701238B4025
:105B44009446028C82B092B222EA0302082914BF5E
:105B540000230123002908BF43F0010301900284BC
:105B64006BB110F11802490850584FF68F7300EAD0
:105B740003035350535843EA0C03535010E0019865
:105B84000A1F92B218305208815848F6FF7301EA8E
:105B94000303835081584FEA0C239BB2194381506D
:105BA40002B0704721B103889BB243F0020304E0C2
:105BB400038823F002039B059B0D03807047C046B6
:105BC40021B103889BB243F0040304E0038823F06B
:105BD40004039B059B0D03807047C04621B1838855
:105BE4009BB243F0800304E0838823F080031B040A
:105BF4001B0C83807047C046038823F008039B0571
:105C04009B0D038003889BB2194301807047C046F3
:105C1400838823F070031B041B0C838083889BB24E
:105C2400194381807047C046038923F007031B048E
:105C34001B0C038103899BB2194301817047C04641
:105C4400038923F080031B041B0C038103899BB28B
:105C5400194301817047C04681847047818570472C
:105C6400818670470187704781877047A0F840108C
:105C74007047C046038B23F00C031B041B0C0383E7
:105C8400038B9BB2194301837047C046038B23F4F3
:105C940040631B041B0C0383038B9BB243EA012365
:105CA4009BB203837047C046838B23F00C031B0411
:105CB4001B0C8383838B9BB2194381837047C0463B
:105CC400838B23F440631B041B0C8383838B9BB261
:105CD40043EA01239BB283837047C0460388DBB247
:105CE400038003889BB2194301807047808E80B281
:105CF4007047C046008F80B27047C046808F80B224
:105D04007047C046B0F8400080B27047808C80B2C3
:105D14007047C046008D80B27047C046038A19425E
:105D24000CBF0020012070476FEA010189B2018293
:105D34007047C046038A828919420CBF00200120A3
:105D440011420CBF002000F0010070476FEA01010E
:105D540089B201827047C04600B52F4B83B0984288
:105D6400019037D00BD8A3F50063984226D003F5F1
:105D74008063984228D0B0F1804F4AD118E0274B75
:105D8400984233D004D8A3F58063984241D127E0E8
:105D9400234B984204D003F50063984239D12EE096
:105DA4004FF400600121FFF7BFF84FF400602DE0CD
:105DB40001200121FFF7C6F801201CE00220012187
:105DC400FFF7C0F8022016E004200121FFF7BAF81B
:105DD400042010E008200121FFF7B4F808200AE0AD
:105DE40010200121FFF7AEF8102004E0202001214B
:105DF400FFF7A8F820200021FFF7A4F809E04FF4EA
:105E040000500121FFF790F84FF400500021FFF7F4
:105E14008BF803B000BDC046000C004000140040E5
:105E2400002C01404FF4165303604FF000038380AD
:105E3400C38003814FF00C0343814FF0000383813F
:105E44007047C046B1F800C04B88028A43EA0C038D
:105E5400B1F804C0C98822F4706243EA0C03120446
:105E64000B43120C9BB21343038270474FF00003A1
:105E7400038043808380C3807047C04621B18389F7
:105E84009BB243F4005304E0838923F400531B04BE
:105E94001B0C83817047C046CBB24FEA531C01F000
:105EA4001F01012382B013FA01F1BCF1010F01902B
:105EB40001D10C3005E0BCF1020F01D1103000E03B
:105EC400143012B103680B4302E0036823EA0103B0
:105ED400036002B07047C04622B1838A9BB241EA94
:105EE400030303E0838A9BB223EA0103838270479E
:105EF400038A23F00F031B041B0C0382038A9BB247
:105F04000B4303827047C046838923F400631B0458
:105F14001B0C838183899BB2194381817047C046DE
:105F240021B183899BB243F0020304E0838923F007
:105F340002031B041B0C83817047C046038A23F0B1
:105F440020031B041B0C0382038A9BB219430182A6
:105F54007047C04621B1038A9BB243F4804304E0F6
:105F6400038A23F480431B041B0C03827047C0463E
:105F7400C905C90D818070478088C005C00D704770
:105F840083899BB243F0010383817047038BDBB2A7
:105F94000383038B9BB243EA012303837047C04608
:105FA400038B03F47F430383038B9BB20B43038371
:105FB4007047C04621B1838A9BB243F0200304E0BA
:105FC400838A23F020031B041B0C83827047C04682
:105FD40021B1838A9BB243F0100304E0838A23F047
:105FE40010031B041B0C83827047C04621B1838AB3
:105FF4009BB243F0080304E0838A23F008031B04E4
:106004001B0C83827047C046838A23F004031B045D
:106014001B0C8382838A9BB2194381827047C046DA
:1060240021B1838A9BB243F0020304E0838A23F004
:1060340002031B041B0C83827047C0460388194269
:106044000CBF0020012070476FEA010189B2018072
:106054007047C046CBB24FEA531C01F01F02012324
:1060640013FA02F2BCF1010F08BF838904D0BCF11A
:10607400020F0CBF038A838A9BB202EA030C0B0A49
:1060840001229A4003889BB21A420CBF00200120CF
:10609400BCF1000F0CBF002000F001007047C046A7
:1060A400090A01238B406FEA03039BB20380704704
:1060B400038ACA8823F440531B041B0C1343038232
:1060C400828970B50B890E46898822F4B0520B433D
:1060D400718922F00C020B431204120C9BB213437D
:1060E4008381838AB28923F440731B041B0C88B018
:1060F4001343054683820190044603A8FEF78EFEEF
:10610400104B11489D420CBF069B059B03EB83017A
:10611400336801EB81019B00B1FBF3F1A1FB002388
:1061240064224FEA531C0CFB121212013232A2FBFE
:1061340000235B0903F00F0343EA0C139BB22B818A
:1061440008B070BD003801401F85EB5100B5224BEB
:1061540083B0984201902BD008D8A3F500639842ED
:1061640016D003F58063984234D119E01B4B984252
:1061740026D003F5684398422CD101214FF4804086
:10618400FEF7D2FE4FF480400021FEF7CDFE21E061
:106194004FF400300121FEF7D5FE4FF4003016E035
:1061A4004FF480200121FEF7CDFE4FF480200EE055
:1061B4004FF400200121FEF7C5FE4FF4002006E055
:1061C4004FF480100121FEF7BDFE4FF48010002132
:1061D400FEF7B8FE03B000BD004C00400050004084
:1061E40030BF704720BF704740BF7047BFF36F8F09
:1061F4007047BFF34F8F7047BFF35F8F704701DF66
:106204007047EFF31480704780F31488BFF36F8FE7
:106214007047EFF30980704780F309887047EFF304
:106224000880704780F30888704772B6704762B67A
:10623400704771B6704761B6704780F31188704734
:10624400EFF31280704740BA704700BA70470000FD
:106254002DF0070168468D4601B500220C49DFF890
:1062640034C00D4802E083588B50043201EB020322
:106274006345F8D3094B0A49002201E043F8042B93
:106284008B42FBD3FCF772FFBDE8014085467047A3
:10629400000000200C000020E46200080C00002034
:1062A4007000002000000000010203040102030446
:1062B400060708090204060854494D32204953527E
:1062C4000A200D002048454C4C4F203A290A0D0065
:1062D4007374617274696E67204144430A0D00004F
:0C62E40040420F0000E100003333333F64
:00000001FF
