:020000040800F2
:103000000000012001480008493100084B31000848
:103010004D3100084F310008513100080000000018
:103020000000000000000000000000005531000812
:1030300053310008000000005731000859310008E2
:103040005D3100085F31000861310008633100081C
:103050006531000867310008693100086B310008EC
:103060006D3100086F310008713100080000000068
:103070000000000000000000000000000000000050
:1030800000000000000000008131000883310008CA
:103090008531000887310008893100088B3100082C
:1030A0008D3100088F3100089131000893310008FC
:1030B0009531000897310008993100089B310008CC
:1030C0009D3100089F310008A1310008A33100089C
:1030D000A5310008A7310008AB310008AD31000868
:1030E000AF310008B1310008B3310008B531000834
:1030F000B7310008B9310008BB310008BD31000804
:10310000BF310008C1310008C3310008C5310008D3
:10311000C7310008C9310008CB310008CD310008A3
:10312000CF310008D1310008D3310008D531000873
:043130005FF8000044
:10313400034B1A6812B11A68013A1A60704700BF4B
:10314400100000207047FEE7FEE7FEE7FEE7704749
:1031540070477047FFF7ECBF704770477047704780
:1031640070477047704770477047704770477047A3
:103174007047704770477047704770477047704793
:103184007047704770477047704770477047704783
:103194007047704770477047704770477047704773
:1031A400704700F0C3B97047704770477047704765
:1031B4007047704770477047704770477047704753
:1031C4007047704770477047704770477047704743
:1031D4007047000010B500F051FF4FF4803000F04C
:1031E4006BFF01F0BBF8012804460DD044F208003F
:1031F400012101F05DF81748012101F065F8BDE8EF
:103204001040012000F0E3BE102000F0EDF9022090
:1032140000F0D2F9002000F09DFF002000F0AEFF86
:103224004FF4806000F0A0FF4FF480304FF4E011C1
:1032340000F06EFF204600F075FF392001F07AF8A7
:103244000028FAD0022000F073FF00F07BFF08286A
:10325400FBD1CBE70100040037B54FF440514FF0E8
:10326400006000F0F3FD4FF4A06000F045FD002580
:103274000124252301A88DF804308DF805508DF81C
:1032840006508DF8074000F041FD1C2301A88DF87D
:1032940004308DF805408DF806508DF8074000F095
:1032A40035FD03B030BDF7B51E4C01A800F071FC2C
:1032B4000426302303271025204601A9ADF8043045
:1032C4008DF806708DF8075000F00FFC4FF408637A
:1032D40020460DEB0601ADF804308DF8076000F0D0
:1032E40004FC4FF48863ADF80430204618230DEB3A
:1032F40006018DF807308DF8067000F0F6FB3046B5
:10330400012100F087FC0848012100F083FC2046DD
:10331400294600F05AFC2046202100F054FC03B05A
:10332400F0BD00BF000C01400004300008B50920C6
:1033340001F050F8BDE80840012001F065B800BF75
:10334400014608B5044801F094F90348402101F00E
:10335400EBF90028F9D008BD0048004010B5441E20
:1033640014F8010F10B1FFF7EBFFF9E710BD70B5CA
:1033740005460E460024B44204DA285DFFF7E0FF58
:103384000134F8E770BD10B50446012001F028F8B7
:10339400064B1C601C68002CFCD16FF0010001F08E
:1033A4001FF82046BDE8104001F01AB810000020B4
:1033B4004FF47A735843FFF7E6BF30B585B004463F
:1033C40068460D4601F0CEF80023ADF80430ADF8A0
:1033D4000630ADF80830ADF80C300C230095ADF88C
:1033E4000A3094B9124801F02FF842F21070FFF736
:1033F400CAFF0F48694601F071F80D4840F22551A3
:10340400012201F0DCF80A480DE0022C0ED1094833
:1034140001F01AF842F21070FFF7B5FF054869464B
:1034240001F05CF80348012101F0BDF805B030BD9E
:10343400003801400048004010B5202104460D48E2
:1034440000F0C3FB0B48102100F0BDFB0A482146E5
:1034540001F00FF90848402101F066F90028F9D07D
:103464000448102100F0B1FBBDE8104001482021C0
:1034740000F0A9BB000C01400038014038B5154BE1
:10348400FF2498709A710520120AD870DA7103200B
:1034940000221C705C705971187111461C4601326F
:1034A400072A04D0A3185B78194489B2F7E70025EA
:1034B400C943217265722561605D0135FFF7BCFF68
:1034C400092DF9D140F24C4300BF013B9BB2002BC4
:1034D400FAD138BD1800002038B5134BFF221A70FA
:1034E4005A700422DA7002221A7101229A7100229F
:1034F4005971987011461C460132062A04D0A3184B
:103504005B781944C9B2F7E70025C943E171257214
:103514002561605D0135FFF78FFF082DF9D1BDE806
:1035240038400A20FFF744BF1800002038B5094886
:1035340040F2255101F002F950B1074C05482569C4
:1035440001F09BF82544C0B2287523690133236137
:1035540038BD00BF00380140180000201FB50446E4
:10356400684600F0FFFF0094114C0023ADF80430CE
:10357400ADF80630ADF80830ADF80C3020460C2319
:10358400ADF80A3000F060FF0A20FFF711FF204673
:10359400694600F0A3FF2046012240F2255101F0C4
:1035A4000EF82046012100F0FEFF04B010BD00BF5C
:1035B40000380140FFF7D2BF044B1A6802F038020A
:1035C4001A601A6810431860704700BF0020024058
:1035D400044B1A6822F008021A601A681043186033
:1035E400704700BF00200240044B1A6822F010020A
:1035F4001A601A6810431860704700BF0020024028
:10360400034B044A5A6002F188325A60704700BF83
:103614000020024023016745024B1A6942F08002F0
:103624001A61704700200240014BD8698008704736
:1036340000200240014B186A704700BF002002407E
:10364400024BD869C0F34000704700BF002002401D
:10365400024B1868C0F34010704700BF00200240BE
:10366400044B1A6909B1104301E022EA0000186111
:10367400704700BF002002400128064B03D1D869DF
:1036840000F001007047DB6818420CBF00200120E5
:10369400704700BF00200240014BD860704700BF54
:1036A40000200240084BDA68D10709D4DA685207CF
:1036B40008D4DB6813F0100F0CBF042003207047FC
:1036C40001207047022070470020024073B5044671
:1036D400FFF7E8FF0025FF2601280ED15CB1019514
:1036E4000196019B1BB1019B013B0193F9E7FFF795
:1036F400D9FF013CF0E7052002E0002C08BF0520BB
:1037040002B070BD38B5054640F6FF70FFF7DEFF26
:10371400042814D10A4C40F6FF70236943F00203D5
:1037240023616561236943F040032361FFF7CEFF02
:10373400012804D0226941F6FD731340236138BD8A
:103744000020024010B540F6FF70FFF7BFFF0428C9
:1037540013D10A4C40F6FF70236943F0040323613C
:10376400236943F040032361FFF7B0FF012804D02D
:10377400226941F6FB731340236110BD002002400F
:1037840010B540F6FF70FFF7A1FF042829D1154CAE
:10379400154B40F6FF70A36003F18833A3602369DF
:1037A40043F020032361236943F040032361FFF7BF
:1037B4008DFF04280ED1226941F6DF731340236183
:1037C4002369A52243F010032361084B0F201A80BC
:1037D400FFF77CFF012804D0226941F6EF73134000
:1037E400236110BD002002402301674500F8FF1F3C
:1037F40070B505460F200E46FFF768FF042817D161
:103804000C4C0F20236943F001032361B3B22B80D6
:10381400FFF75CFF042804D1360C6E800F20FFF7FD
:1038240055FF012804D0226941F6FE731340236139
:1038340070BD00BF0020024070B505460F200E4643
:10384400FFF744FF04280FD1084C0F20236943F0ED
:10385400010323612E80FFF739FF012804D0226978
:1038640041F6FE731340236170BD00BF0020024087
:1038740070B505460F200E46FFF728FF042814D123
:103884000A4C0B4B0F20A36003F18833A360236918
:1038940043F0100323612E80FFF718FF012804D0A2
:1038A400226941F6EF731340236170BD002002408A
:1038B4002301674510B504460F20FFF707FF0428CE
:1038C4003ED1204B2049E443996001F1883199604D
:1038D4001969E2B241F01001FF2A196104D1C4F35D
:1038E4000723FF2B08D10EE0184B0F201A81FFF796
:1038F400EDFE04281CD1F2E7144A0F205381FFF790
:10390400E5FE042814D1C4F30743FF2B06D00F4A65
:103914000F209381FFF7DAFE042809D1240EFF2C2F
:1039240001D1042006E0094B0F20DC81FFF7CEFE15
:10393400012805D0034A41F6EF7311690B40136166
:1039440010BD00BF002002402301674500F8FF1F9F
:1039540038B5054640F6FF70FFF7B8FE042836D1A7
:103964001B4C1C4B40F6FF70A36003F18833A3602B
:10397400236943F020032361236943F04003236157
:10398400FFF7A4FE04281BD1226941F6DF7313401C
:103994002361236943F0100323610F4B0DB100220F
:1039A40000E0A5221A8040F6FF70FFF78FFE012881
:1039B4000DD0074A41F6EF7311690B40136138BD0E
:1039C400012804D0226941F6DF731340236138BD16
:1039D400002002402301674500F8FF1FF8B5114C91
:1039E400114B0546A36003F18833A3600F200E46F4
:1039F4001746FFF76BFE042813D1236947F0F80735
:103A040043F0100323613E43084B35435D800F2090
:103A1400FFF75CFE012804D0226941F6EF731340DE
:103A24002361F8BD002002402301674500F8FF1F11
:103A340008B5264B98422FD011D8A3F500639842BD
:103A44001ED003F58063984220D0A3F5006398420A
:103A54003AD10420012100F043FC04202FE01C4B48
:103A640098421FD003F58063984221D0A3F50063E8
:103A7400984229D14020012100F032FC40201EE070
:103A84000820012100F02CFC082018E0102001215E
:103A940000F026FC102012E02020012100F020FC80
:103AA40020200CE08020012100F01AFC802006E098
:103AB4004FF48070012100F013FC4FF4807000215A
:103AC400BDE8084000F00CBC08BD00BF0014014074
:103AD400001C014008B50120014600F001FCBDE8CE
:103AE40008400120002100F0FBBBCB782DE9F04316
:103AF400DA0648BF8A78098803F00F0548BF1543E2
:103B040011F0FF0F1FD0046800224FF0010C4FF09A
:103B14000F080CFA02F707EA0106BE420FD197001C
:103B240008FA07F905FA07F724EA0904282B44EAF6
:103B3400070401D1466102E0482B08BF0661013247
:103B4400082AE6D10460FF2921D9446800224FF0F5
:103B5400010C4FF00F0802F108070CFA07F707EA07
:103B64000106BE420FD1970008FA07F905FA07F7D4
:103B740024EA0904282B44EA070401D1466102E03F
:103B8400482B08BF06610132082AE4D14460BDE82D
:103B9400F0834FF6FF730380022383700423C37002
:103BA4007047836819420CBF002001207047806869
:103BB40080B27047C36819420CBF002001207047CF
:103BC400C06880B2704701617047416170470AB1B3
:103BD4000161704741617047C160704741F48033AF
:103BE400836181618361836983697047054A10B584
:103BF40014684FF680732340194341EA00101060A3
:103C040010BD00BF00000140014B1860704700BFA9
:103C14001C00204230B5134A00F44015B5F5401F8E
:103C2400536884B206D1556823F0706325F070653B
:103C340055600FE0C20205D5C0F30342032505FA1F
:103C440002F203E0420D120104FA02F223EA020333
:103C540043F0706319B1400D000184402343014ACD
:103C6400536030BD0000014001F003039B000F22AC
:103C74009A40984001F0FC0101F1804101F5803146
:103C840010B58C6824EA02028A608A6802438A605A
:103C940010BD00BF0B4A6FF070434FF0FF31C2F804
:103CA4008010C2F88430C2F88011C2F88431002335
:103CB400184603F1C00101330F2B42F82100F8D15B
:103CC400704700BF00E100E0094B4FF02062094952
:103CD4005A6000229A60D9601A615A619A61DA6165
:103CE4001A625A624FF0FF329A62DA621A637047BC
:103CF40000ED00E00000FA0540F0BF60024B40F424
:103D04000030D860704700BF00ED00E0C27830B5E5
:103D140003785AB31B4A4478D2688578D243C2F3F5
:103D24000222C2F1040104FA01F10F24D4402C4010
:103D34000C4303F00301C9002401FF228C408A4094
:103D440003F0FC0303F1604303F56143D3F800532C
:103D540025EA020122400A43C3F800230378012222
:103D6400590903F01F0302FA03F306E0590901227B
:103D740003F01F0302FA03F32031034A42F821300F
:103D840030BD00BF00ED00E000E100E0002303705F
:103D940043708370C370704700F01DBD00F01DBDFB
:103DA40000F01DBD00F01DBD000100F01CBD00F0C1
:103DB4001DBD024B5868C0F30930704700ED00E0A8
:103DC40000F01F03012202FA03F34009044A4030C1
:103DD40052F820001840C31A58425841704700BF97
:103DE40000E100E0014B1860704700BF00EF00E005
:103DF4004209012300F01F0003FA00F0024B603275
:103E040043F82200704700BF00E100E0024B58680D
:103E1400C0F30900704700BF00ED00E000F01F038D
:103E2400012202FA03F34009044A803052F82000C8
:103E34001840C31A58425841704700BF00E100E0DF
:103E4400014B1868704700BF00ED00E021F06041AD
:103E540021F07F01014B08439860704700ED00E0BA
:103E6400014A024BDA6070470400FA0500ED00E0F5
:103E7400014A024BDA6070470100FA0500ED00E0E8
:103E8400044B1A6909B1104301E022EA00001861E9
:103E9400704700BF00ED00E0012300F01F0003FAAB
:103EA40000F0044B5A6A09B1104301E022EA000011
:103EB4005862704700ED00E0114B10B5DB68DB433E
:103EC400C3F30223C3F10404A140FF2424FA03F33F
:103ED4001A401143C0F30122D2009440090101FAAF
:103EE40002F2C0F381139B0003F1604303F56D43B9
:103EF400986920EA04049C61986902439A6110BDA0
:103F040000ED00E0C0F3832001238340034A506A9C
:103F14001840C31A58425841704700BF00ED00E0F2
:103F240000F01F00012101FA00F0024B5A6802431D
:103F34005A60704700ED00E000F01F00411E0120B0
:103F440000FA01F1024B5A680A435A60704700BFF5
:103F540000ED00E0C0F3833001238340034A506A3C
:103F64001840C31A58425841704700BF00ED00E0A2
:103F7400C0F38142094B0AB9D86A7047012A0AD1B1
:103F8400C0F30152986AD300D840022A14BF00F04B
:103F94000F00C0B27047186B704700BF00ED00E01F
:103FA400034B10F4800F0CBF586B986B704700BF25
:103FB40000ED00E008B54FF08050012100F09CF9BD
:103FC400BDE808404FF08050002100F095B9014B46
:103FD4001860704720000E42014B1860704700BF04
:103FE40010000E42034B1A6822F0E00210431860DE
:103FF400704700BF00700040014B1860704700BF5D
:10400400A0000E42084B01291A6822F0030240EA7C
:1040140002001860054B1A6842F004021A6001D1CC
:1040240000F0B4BB00F0B4BB0070004010ED00E041
:10403400074B1A6842F004021A601A6842F002023E
:104044001A60044B1A6842F004021A6000F09EBB26
:104054000070004010ED00E0034B5B6818420CBF99
:1040640000200120704700BF00700040024B1A6816
:1040740042EA800018607047007000400C4B1A68D8
:1040840042F001021A6059680A4A0A405A601A68E2
:1040940022F0847222F480321A601A6822F4802298
:1040A4001A605A6822F4FE025A6000229A6070472D
:1040B400001002400000FFF80C4BB0F5803F1A6876
:1040C40022F480321A601A6822F480221A6003D023
:1040D400B0F5802F04D070471A6842F4803202E0B1
:1040E4001A6842F4A0221A60704700BF0010024010
:1040F400034B1A6822F0F80242EAC00018607047C5
:1041040000100240014B1860704700BF000042429B
:10411400034B5A6822F47C121143084358607047D9
:1041240000100240014B1860704700BF600042421B
:10413400034B5A6822F0030210435860704700BFD3
:1041440000100240024B586800F00C00704700BF9A
:1041540000100240034B5A6822F0F00210435860EA
:10416400704700BF00100240034B5A6822F4E0621B
:1041740010435860704700BF00100240034B5A6858
:1041840022F4605242EAC0005860704700100240B6
:10419400044B1A7809B1104301E022EA00001870B8
:1041A400704700BF09100240014B1860704700BF00
:1041B400D8004242034B5A6822F4404210435860EC
:1041C400704700BF00100240064B002201281A70FD
:1041D4001A7002D0042802D0704718707047052264
:1041E4001A70704720100240014B1860704700BFDE
:1041F40080044242024B1A6A10431862704700BF9F
:1042040000100240014B1860704700BF3C0442425A
:104214001D4B10B55A6802F00C02042A01D0082A7A
:1042240002D01A4B03600FE05A685968C2F3834204
:10423400C90302F1020202D55B689B0301D5144B4A
:1042440000E0124B5A4302600F4A124B5168C1F30B
:1042540003115C5C0168E14041605468C4F30224CA
:104264001C5D21FA04F484605468C4F3C2241C5D08
:10427400E140C1605268C2F3813213441B7CB1FB3C
:10428400F3F1016110BD00BF0010024000127A007A
:1042940000093D0020490008044B5A6909B1104344
:1042A40001E022EA00005861704700BF001002409C
:1042B400044B9A6909B1104301E022EA00009861B5
:1042C400704700BF00100240044BDA6909B1104383
:1042D40001E022EA0000D861704700BF00100240EC
:1042E400044BDA6809B1104301E022EA0000D86007
:1042F400704700BF00100240044B1A6909B1104313
:1043040001E022EA00001861704700BF001002407B
:10431400014B1860704700BF40044242014B1860D3
:10432400704700BF4C004242014B1870704700BFF9
:10433400071002404309012B074A01D1136803E027
:10434400022B0CBF136A536A00F01F0023FA00F01B
:1043540000F00100704700BF0010024007B50023C1
:1043640001933120FFF7E6FF019B0133019318B954
:10437400019BB3F5A06FF4D13120FFF7DBFF0030D0
:1043840018BF012003B05DF804FB034B5A6A42F0E6
:1043940080725A62704700BF00100240034B9B6852
:1043A40018420CBF00200120704700BF00100240DB
:1043B400014B1870704700BF0A100240044B0428D8
:1043C4001A680CBF42F0040222F004021A6070471B
:1043D40010E000E0014B5860704700BF10E000E0BF
:1043E4000128084B03D11A6842F0010204E00230AC
:1043F40004D11A6822F001021A60704700229A6000
:10440400704700BF10E000E0044B1A6810B142F09E
:10441400020201E022F002021A60704710E000E09C
:10442400014B9868704700BF10E000E0C308022BFE
:10443400044B0CBF1B68DB6823FA00F000F001009A
:10444400704700BF10E000E008B5224B98422CD022
:1044540008D8A3F50063984217D003F58063984207
:104464001BD008BD1C4B984227D003F568439842E3
:104474002FD14FF480400121FFF732FFBDE80840FF
:104484004FF480400021FFF72BBF4FF4003001218F
:10449400FFF732FF4FF4003016E04FF48020012183
:1044A400FFF72AFF4FF480200EE04FF40020012193
:1044B400FFF722FF4FF4002006E04FF480100121A3
:1044C400FFF71AFF4FF480100021BDE80840FFF702
:1044D40013BF08BD004C004000500040038ACA8846
:1044E4009BB223F44053134330B503820D468389B2
:1044F4000989AA8823F4B0530A4323F00C03698979
:104504001B040A431B0C13439BB28381838AAA892D
:104514009BB223F4407387B013430446838201A8FB
:10452400FFF776FE049A039B0D498C4208BF13469D
:1045340019214B432A689200B3FBF2F16423B1FBC7
:10454400F3F21201100903FB101109013231B1FB1E
:10455400F3F303F00F031A4392B2228107B030BD84
:10456400003801404FF4165303600C22002383806B
:10457400C38003814281838170470B8810B54C88C6
:10458400028A23438C88C98892B223430B4322F4C2
:10459400706213439BB2038210BD002303804380E7
:1045A4008380C3807047838919B19BB243F400535D
:1045B40003E023F400531B041B0C83817047C1F3F5
:1045C400421310B5012401F01F01A34204FA01F1C2
:1045D40001D10C3003E0022B0CBF103014300368FF
:1045E4000AB1194301E023EA0101016010BD838A85
:1045F4009BB20AB1194301E023EA010181827047A9
:10460400038A23F00F031B041B0C0382038A9BB24F
:10461400194301827047838923F400631B041B0C34
:10462400838183899BB2194381817047838919B13E
:104634009BB243F0020303E023F002031B041B0CB0
:1046440083817047038A23F020031B041B0C03821D
:10465400038A9BB2194301827047038A19B19BB242
:1046640043F4804303E023F480431B041B0C0382C4
:104674007047C1F30801818070478088C0F3080047
:10468400704783899BB243F0010383817047038B96
:10469400DBB20383038B9BB243EA0121018370479E
:1046A400038B03F47F430383038B9BB2194301837E
:1046B4007047838A19B19BB243F0200303E023F0CF
:1046C40020031B041B0C83827047838A19B19BB29D
:1046D40043F0100303E023F010031B041B0C83823C
:1046E4007047838A19B19BB243F0080303E023F0B7
:1046F40008031B041B0C83827047838A23F0040382
:104704001B041B0C8382838A9BB2194381827047EA
:10471400838A19B19BB243F0020303E023F002033E
:104724001B041B0C83827047038819420CBF0020B2
:1047340001207047C94389B20180704710B5C1F3A5
:10474400421401F01F030122012C02FA03F201D1E9
:10475400838903E0022C0CBF038A838A9BB2134033
:10476400028892B243B10123090A03FA01F111420A
:104774000CBF0020012010BD184610BD090A0123FA
:104784008B40DB439BB20380704700BF30BF704750
:1047940020BF704740BF7047BFF36F8F7047BFF3B0
:1047A4004F8F7047BFF35F8F704701DF7047EFF3A0
:1047B4001480704780F31488BFF36F8F7047EFF352
:1047C4000980704780F309887047EFF308807047C9
:1047D40080F30888704772B6704762B6704771B646
:1047E400704761B6704780F311887047EFF3128009
:1047F400704740BA704700BA70470000684620F01E
:1048040007018D4619B50C4A0C480D4C0023991824
:10481400814203D2195999500433F8E7094B0A4AE3
:104824000021934202D243F8041BFAE700F00EF889
:10483400BDE81940854670470000002010000020A4
:104844004C490008100000204000002008B5FEF785
:10485400C1FCFEF701FDFEF726FDFEF767FD2948C2
:10486400FEF7A8FE284B02201968FEF7A6FD27488C
:10487400FEF774FD264B00229A734FF47A70FEF70C
:1048840097FD2448FEF76AFD10200221FEF724FE5E
:104894000A211F48FEF76BFD1F48FEF75FFD20212C
:1048A4004FF4FF620A20FEF7E9FD1B48FEF756FDB0
:1048B4004FF47A70FEF77CFD0A2020214FF48062C9
:1048C400FEF7DCFD1E2140F2FF320820FEF7D6FD84
:1048D4004FF47A70FEF76CFD202140F2FF320A207B
:1048E400FEF7CCFD4FF47A70FEF762FD0A2020211A
:1048F4000022FEF7C3FD08201E210022FEF7BEFDA4
:10490400BBE700BF40420F0000000020344900080C
:104914002C0000204049000848490008000000001D
:10492400010203040102030406070809020406083D
:104934002048454C4C4F203A290A0D0073656E649B
:08494400696E67200A200D00D6
:10494C0000E1000001000000FF03000040420F00E6
:04000005080031348A
:00000001FF
