:020000040800F2
:1030000000000120ED4B0008F1310008F531000807
:10301000F9310008FD31000801320008000000000D
:10302000000000000000000000000000093200085D
:1030300005320008000000000D32000809330008C6
:103040001132000815320008193200081D3200083C
:103050002132000825320008293200082D320008EC
:103060003132000835320008393200080000000013
:103070000000000000000000000000000000000050
:103080000000000000000000593200085D32000816
:103090006132000865320008693200086D320008AC
:1030A0007132000875320008793200087D3200085C
:1030B0008132000885320008893200088D3200080C
:1030C0009132000895320008993200089D320008BC
:1030D000A1320008FD320008A5320008A93200081C
:1030E000AD320008B1320008B5320008B93200082C
:1030F000BD320008C1320008C5320008C9320008DC
:10310000CD320008D1320008D5320008D93200088B
:10311000DD320008E1320008E5320008E93200083B
:10312000ED320008F1320008F5320008F9320008EB
:043130005FF8000044
:10313400034A136813B11368013B13607047C04618
:103144001000002000B581B000F05CF900F030F907
:1031540000F0EAF800F0DCF81D4800F045FA1D4BD9
:103164000220196800F0D0F91B4800F0BFF91B4B8E
:1031740000229A734FF47A7000F086F9184800F030
:10318400B5F91020022100F073FA0A21134800F067
:10319400A1F9144800F0AAF920214FF4FF620A2093
:1031A40000F0A0FA0F4800F0A1F94FF47A7000F093
:1031B4006BF90A2020214FF47F7200F093FA0A4839
:1031C400092100F087F9074800F090F9D2E7C046DA
:1031D40040420F0004000020544C0008200000204E
:1031E400604C0008684C00082F0000207047C0465F
:1031F400FEE7C046FEE7C046FEE7C046FEE7C0461F
:103204007047C0467047C0467047C0467047C046C6
:103214007047C0467047C0467047C0467047C046B6
:103224007047C0467047C0467047C0467047C046A6
:103234007047C0467047C0467047C0467047C04696
:103244007047C0467047C0467047C0467047C04686
:103254007047C0467047C0467047C0467047C04676
:103264007047C0467047C0467047C0467047C04666
:103274007047C0467047C0467047C0467047C04656
:103284007047C0467047C0467047C0467047C04646
:103294007047C0467047C0467047C0467047C04636
:1032A4007047C0467047C0467047C0467047C04626
:1032B4007047C0467047C0467047C0467047C04616
:1032C4007047C0467047C0467047C0467047C04606
:1032D4007047C0467047C0467047C0467047C046F6
:1032E4007047C0467047C0467047C0467047C046E6
:1032F4007047C0467047C04600B581B000F07AF907
:1033040001B000BD00B581B0FFF712FF01B000BDF0
:1033140000B542F2283081B001F00CFA012001F02E
:1033240025FA01B000BDC04670B582B001AD1E4C97
:10333400284600F0FDFC4FF03003ADF804300326BE
:103344001023204629468DF807308DF8066000F0DA
:103354009BFC4FF40863ADF804302046042329464F
:103364008DF8073000F090FC4FF48863ADF804301A
:103374002046182329468DF807308DF8066000F0A2
:1033840083FC0420012100F019FD0121074800F00D
:1033940015FD2046102100F0E9FC2046202100F014
:1033A400E3FC02B070BDC046000C014000043000D4
:1033B40070B54FF4405182B04FF0006000F078FED9
:1033C40001AE4FF4A06000F0D5FD002525230124B3
:1033D40030468DF804308DF805508DF806508DF880
:1033E400074000F0D1FD1C2330468DF804308DF8E1
:1033F40005408DF806508DF8074000F0C5FD02B079
:1034040070BDC04600B581B000F0B4FF4FF4803009
:1034140000F0D0FF00F0E8FF012824D1102000F0D4
:10342400B7F9022000F09CF9002001F027F80020F1
:1034340001F038F84FF4806001F02AF84FF480303E
:103444004FF4E01100F0F8FF012000F0FFFF3920F5
:1034540001F028F90028FAD0022000F0FDFF01F065
:1034640005F80828FBD1012144F2080001F0D0F846
:103474000448012101F0DAF8012000F00BFF01B04B
:1034840000BDC0460100040010B50446012001F04F
:1034940057F9074B1C601A461368002BFCD16FF0D8
:1034A400010001F04DF9002001F04AF910BDC046B9
:1034B4001000002000B581B281B0054801F024FA63
:1034C4000348402101F086FA0028F9D001B000BD7C
:1034D4000048004070B506460D46002403E0305D08
:1034E400FFF7E8FF0134AC42F9DB70BD30B50546A7
:1034F40081B0002401E0FFF7DDFF285D01340028DE
:10350400F9D101B030BDC04670B584B005466846F7
:103514000C4601F053F94FF00003ADF80430ADF858
:103524000630ADF80830ADF80C304FF00C036E46A1
:103534000094ADF80A308DB9114801F0D3FA0A208D
:10354400FFF7A2FF0E48694601F07EFA0C4840F2EC
:103554002551012201F06CF909480CE0022D0DD12E
:10356400084801F0BFFA0A20FFF78EFF05486946B4
:1035740001F06AFA0348012101F04CF904B070BD6E
:10358400003801400048004030B585B00446684624
:1035940001F014F90094134C4FF00003ADF804301B
:1035A400ADF80630ADF80830ADF80C3020464FF0D9
:1035B4000C03ADF80A3001F095FA0A20FFF764FF16
:1035C4002046694601F040FA204640F22551012286
:1035D40001F02EF9204601216D4601F01BF905B0DA
:1035E40030BDC0460038014000B581B0FFF7CCFFC4
:1035F40001B000BD30B50A4881B040F2255101F058
:10360400F5F950B1074C0648256801F081F9064BDD
:10361400C0B2585523680133236001B030BDC046A1
:1036240000380140180000202000002010B520219F
:1036340004460D4800F09AFBA4B20B48102100F098
:1036440093FB0A48214601F05FF90848402101F044
:10365400C1F90028F9D01021034800F087FB024883
:10366400202100F081FB10BD000C01400038014016
:1036740030B51A4A4FF0FF33137053700423D370DC
:103684000223137101239070517181B093714FF033
:10369400040E0021002006E002EB01039B780344A2
:1036A400D8B24B1CD9B28E45DFF830C0F4DA6FEAD9
:1036B40000038CF807300A4B00228CF808201A60AB
:1036C40000246546285D0134FFF7B0FF082CF9D1CA
:1036D4000A20FFF7D9FE01B030BDC0462F000020FC
:1036E4001800002030B5DFF870C04FF0FF338CF8BD
:1036F40000308CF8013005238CF803308CF8062058
:103704000323120A8CF805108CF8072081B08CF87A
:1037140002008CF804304FF0050E0022002106E070
:103724000CEB02039B780B44D9B2531CDAB29645D6
:103734000948F5DA6FEA01030372084B002242726A
:103744001A6000240546285D0134FFF76FFF092C39
:10375400F9D101B030BDC0462F0000201800002070
:10376400044A136803F038031360136818431060A5
:103774007047C04600200240044A136823F008033F
:1037840013601368184310607047C046002002405D
:10379400044A136823F0100313601368184310607D
:1037A4007047C04600200240034B044A5A6002F1AD
:1037B40088325A607047C0460020024023016745A2
:1037C400024A136943F080031361704700200240EA
:1037D400014BD8698008704700200240014B186AE9
:1037E4007047C04600200240024BD869400800F0F0
:1037F4000100704700200240024B1868400900F0A5
:10380400010070470020024021B1054A136940EAD3
:10381400030303E0024A136923EA000313617047B8
:1038240000200240012804D1054BDB6903F00100AC
:1038340005E0034BDB6818420CBF002001207047F1
:1038440000200240014BD8607047C046002002406F
:10385400094AD36813F0010F01D001200BE0D368AB
:1038640013F0040F01D0022005E0D36813F0100F09
:1038740014BF0320042070470020024010B5234ADF
:1038840082B0D368014613F0010F01D001202AE071
:10389400D36813F0040F01D0022024E0D36813F09E
:1038A400100F14BF032004201DE00194CDF804C0C0
:1038B40002E0019B013B0193019B002BF9D1D368EA
:1038C40013F0010F01D001200BE0D36813F0040FB3
:1038D40001D0022005E0D36813F0100F14BF0320B9
:1038E4000420013903E0094A00244FF0FF0C0B1EA9
:1038F40018BF0123012814BF002303F00103002B88
:10390400D3D1002908BF052002B010BD0020024019
:10391400F0B5134B134C81B0A36003F18833054613
:10392400A3600F200E461746FFF7A8FF042815D101
:1039340023690D4A43F01003236145F0F80346EA76
:10394400030347EA030353800F20FFF797FF01287F
:103954001FBF226941F6EF731340236101B0F0BD2C
:10396400230167450020024000F8FF1F30B50546DB
:1039740081B040F6FF70FFF781FF04283CD11F4C53
:103984001F4B00F57E60A36003F18833A3602369B5
:103994001B3043F020032361236943F04003236178
:1039A400FFF76CFF042820D1236941F6DF7203EA94
:1039B40002022261236943F0100323611DB1114BFC
:1039C4004FF0000202E00F4B4FF0A5021A8040F6C0
:1039D400FF70FFF753FF01280ED0084941F6EF733B
:1039E4000A6902EA03030B6106E001281FBF22698A
:1039F40041F6DF731340236101B030BD0020024063
:103A04002301674500F8FF1F10B504460F20FFF798
:103A140035FF042850D1294A294B6FEA04049360E6
:103A240003F1883393601369E1B243F01003FF2973
:103A3400136104D0234B0F201981FFF71FFF04F4F7
:103A44007F431A0AB2F1FF0318BF0123042814BFED
:103A5400002303F0010323B11A4B0F205A81FFF70F
:103A64000DFF04F47F031A0CB2F1FF0318BF012306
:103A7400042814BF002303F0010323B1114B0F20CA
:103A84009A81FFF7FBFE220EB2F1FF0318BF012358
:103A9400042814BF002303F0010323B1094B0F20B2
:103AA400DA81FFF7EBFE01281FBF044941F6EF73EB
:103AB4000A69134018BF0B6110BDC04600200240C4
:103AC4002301674500F8FF1F70B506460F200D4619
:103AD400FFF7D4FE042814D10A4C0B4B0F20A3602B
:103AE40003F18833A360236943F010032361358015
:103AF400FFF7C4FE01281FBF226941F6EF7313408C
:103B0400236170BD002002402301674570B506465D
:103B14000F200D46FFF7B2FE04280FD1084C0F20EA
:103B2400236943F0010323613580FFF7A7FE0128D1
:103B34001FBF226941F6FE731340236170BDC04666
:103B44000020024070B506460F200D46FFF796FE92
:103B5400042817D10C4C0F20236943F0010323617F
:103B6400ABB23380FFF78AFE042804D12B0C738098
:103B74000F20FFF783FE01281FBF226941F6FE7361
:103B84001340236170BDC0460020024010B540F6CA
:103B9400FF70FFF773FE04282CD1174C174B00F568
:103BA4007E60A36003F18833A36023691B3043F074
:103BB40020032361236943F040032361FFF75EFE82
:103BC400042810D1226941F6DF7302EA030323615A
:103BD40023694FF0A50243F010032361084B0F2023
:103BE4001A80FFF74BFE01281FBF226941F6EF73CD
:103BF4001340236110BDC0460020024023016745E5
:103C040000F8FF1F10B540F6FF70FFF737FE0428D9
:103C140013D10A4C236903432361236900F57E60B1
:103C240043F0400323611B30FFF728FE01281FBF28
:103C3400226941F6FB731340236110BD002002404A
:103C440030B5054681B040F6FF70FFF717FE042833
:103C540015D10C4C00F57E6023691B3043F0020340
:103C640023616561236943F040032361FFF706FE86
:103C740001281FBF226941F6FD731340236101B07F
:103C840030BDC04600200240F0B5CD780E8815F056
:103C9400100F18BF8B7805F00F0718BF1F4316F0DD
:103CA400FF0F83B01ED004680021012212FA01F331
:103CB40003EA060C9C4511D18A000F23934017FA9E
:103CC40002F224EA03041443282D019308BFC0F828
:103CD40014C003D0482D08BFC0F810C00131082912
:103CE400E3D10460FF2E20D944680021012201F1B0
:103CF400080312FA03F303EA060C9C4511D18A0067
:103D04000F23934017FA02F224EA03041443282DE4
:103D1400019308BFC0F814C003D0482D08BFC0F8F1
:103D240010C001310829E1D1446003B0F0BDC046A0
:103D34004FF0FF330380022383700423C370704762
:103D4400836819420CBF002001207047806880B24C
:103D54007047C046C36819420CBF00200120704759
:103D6400C06880B27047C0460161704741617047C6
:103D74000AB1016100E041617047C046C16070470B
:103D840041F480338361816183618369836970470E
:103D9400DFF818C04FF68073DCF8002041EA001108
:103DA40002EA03031943CCF80010704700000140F5
:103DB400014B18607047C0461C00204230B500F427
:103DC400401304040D461449240CB3F5401FD1F8E4
:103DD40004C006D14B682CF0706223F070634B6012
:103DE40010E010F4801F05D000F47022120C03239D
:103DF400934003E0430D1B0114FA03F32CEA03037D
:103E040043F0706225B1430D1B0114FA03F31A4306
:103E1400014B5A6030BDC0460000014010B501F0AE
:103E24000304A4000F23A340A040DFF820C08908A6
:103E340002315CF8212022EA03024CF821205CF8CC
:103E4400213018434CF8210010BDC0460000014049
:103E540000B50120012181B000F0F6FB0120002112
:103E640000F0F2FB01B000BD00B5274B83B09842CF
:103E740001902BD00CD8A3F5006398421AD003F517
:103E8400806398421CD0A3F5006398423AD10BE0BA
:103E94001E4B984226D003F58063984228D0A3F5A0
:103EA400006398422ED117E00420012100F0CCFBDE
:103EB400042024E00820012100F0C6FB08201EE0B5
:103EC4001020012100F0C0FB102018E02020012167
:103ED40000F0BAFB202012E04020012100F0B4FBE6
:103EE40040200CE08020012100F0AEFB802006E0A1
:103EF4004FF48070012100F0A7FB4FF48070002183
:103F040000F0A2FB03B000BD00140140001C0140FE
:103F14000B4B4FF0FF316FF07042C3F8801018461E
:103F2400C3F88420C3F88011C3F88421002100223F
:103F340002F1C00301320F2A40F82310F8D1704770
:103F440000E100E0094A4FF020630949536000236F
:103F54009360D160136153619361D36113625362BF
:103F6400013B9362D36213637047C04600ED00E0E7
:103F74000000FA0540F0BE60024B40F42020D860F7
:103F84007047C04600ED00E030B5C37805785BB3F8
:103F94001A4B4178DA681A4C6FEA020202F4E062C2
:103FA400120AC2F1040399400F23D340827805F02A
:103FB400030013400B43C0001B01FF2282408340D7
:103FC4004FEA950C0CF1C00C54F82C10134021EA64
:103FD40002010B4344F82C3005F01F0201239340E7
:103FE400690944F8213008E005F01F0201239340D9
:103FF4006909034A203142F8213030BD00ED00E068
:1040040000E100E00023037043708370C3707047C5
:10401400034B04485B6803EA0000000B7047C0468A
:1040240000ED00E000F03F0000F01F0301229A4081
:104034004009054B403053F820001040904214BF13
:10404400002001207047C04600E100E0014B1860E9
:104054007047C04600EF00E04109012300F01F0053
:104064008340024A603142F82130704700E100E0A9
:10407400024B58688005800D7047C04600ED00E093
:1040840000F01F0301229A404009054B803053F889
:1040940020001040904214BF002001207047C04609
:1040A40000E100E0014B18687047C04600ED00E0F5
:1040B40021F0604121F07F01014B01439960704779
:1040C40000ED00E0014A024BDA6070470400FA0593
:1040D40000ED00E0014A024BDA6070470100FA0586
:1040E40000ED00E021B1054A136940EA030303E04F
:1040F400024A136923EA00031361704700ED00E0EC
:1041040000F01F00012313FA00F021B1054A536A9D
:1041140040EA030303E0034A536A23EA00035362B9
:104124007047C04600ED00E010B5144CE3686FEA38
:10413400030303F4E0631B0AC3F1040C01FA0CF15A
:104144004FF0FF0C2CFA03F31A400A4300F0C001AD
:10415400400900F018000CFA00FC120182408909A1
:10416400063154F8213023EA0C0344F8213054F882
:1041740021301A4344F8212010BDC04600ED00E070
:10418400800A00F00F0001238340044A506A03EAC6
:104194000000984214BF00200120704700ED00E0A9
:1041A40000F01F0001238340024A51680B4353600F
:1041B4007047C04600ED00E000F01F000138012305
:1041C4008340024A51680B435360704700ED00E09E
:1041D400800B00F00F0001238340044A506A03EA75
:1041E4000000984214BF00200120704700ED00E059
:1041F400830C13F0030302D10D4BD86A17E0012B93
:1042040013D103F1604303F56C43FE33020D013314
:1042140002F00302996AD30031FA03F0022A14BFB0
:1042240000F00F0000F0FF0001E0014B186B704735
:1042340000ED00E010F4800F0BBF024B014B586BF4
:10424400986B704700ED00E000B581B000F0C4FC4D
:1042540001B000BD00B5000181B000F0BAFC01B0AE
:1042640000BDC04600B581B000F0B1FC01B000BD96
:1042740000B581B000F0A9FC01B000BD00B581B06B
:1042840000F0A1FC01B000BD00B581B000F099FCC4
:1042940001B000BD014B18607047C04620000E42BB
:1042A400014B18607047C04610000E42034A136861
:1042B40023F0E003184310607047C04600700040CC
:1042C400014B18607047C046A0000E42034B5B6868
:1042D40018420CBF002001207047C0460070004007
:1042E400024A136843EA8003136070470070004079
:1042F4000B4A00B5136881B043F0040313601368DC
:1043040043F00203136002F1204202F5FA42103234
:10431400136843F00403136000F02EFC01B000BDE9
:10432400007000400C4A00B5136881B023F0030309
:104334001843106002F1204202F5FA421032136869
:10434400012943F00403136002D100F015FC01E0DD
:1043540000F014FC01B000BD0070004010B54FF037
:1043640080542046012100F07DF92046002100F010
:1043740079F910BD0D4A136843F0010313605168C5
:104384000B4B01EA03035360136823F0847323F493
:1043940080331360136823F480231360536823F479
:1043A400FE035360002393607047C0460010024030
:1043B4000000FFF80B4AB0F5803F136823F4803304
:1043C4001360136823F48023136003D0B0F5802FA7
:1043D40007D102E01368034302E0136843F4A02307
:1043E400136070470010024082B000230949019312
:1043F4000A68019B013312F4003F019303D1019B2E
:10440400B3F5A06FF4D1034B1868400C00F0010021
:1044140002B0704700100240034A136823F0F80307
:1044240043EAC0031360704700100240014B186058
:104434007047C04600004242034A536823F47C1389
:10444400184308435060704700100240014B186045
:104454007047C04660004242034A536823F0030396
:10446400184350607047C04600100240024B586821
:1044740000F00C007047C04600100240034A536825
:1044840023F0F003184350607047C0460010024008
:10449400034A536823F4E063184350607047C046EE
:1044A40000100240034A536823F4605343EAC003F4
:1044B400536070470010024021B1054A137840EA66
:1044C400030303E0024A137823EA000313707047DE
:1044D40009100240014B18607047C046D8004242A0
:1044E400034A536823F44043184350607047C0465E
:1044F40000100240064A002301281370137008BFFD
:10450400107003D0042801D1052313707047C046EE
:1045140020100240014B18607047C046800442429C
:10452400024A136A184310627047C04600100240E2
:10453400014B18607047C0463C04424229498446F6
:104544004B6803F00C03042B21D0082B1FD14B68BC
:1045540003F470139B0C9A1C4B6813F4803F08BF40
:10456400C2EB421306D04B6813F4003F4FEA4213E8
:1045740006D09B1AC3EB831302EBC3031B0207E0B1
:104584009B1AC3EB831302EBC3035B0200E0164BDD
:104594001448CCF800304368144A03F0F0031B09B4
:1045A400D35CDCF80010D940CCF80410436803F461
:1045B400E0631B0AD35C31FA03F3CCF80830436898
:1045C40003F46053DB0AD35C094AD940CCF80C10DD
:1045D400436803F440439B0BD35CB1FBF3F1CCF889
:1045E400101070470010024000127A00404C00087E
:1045F400504C000821B1054A536940EA030303E023
:10460400024A536923EA00035361704700100240D1
:1046140021B1054A936940EA030303E0024A93691E
:1046240023EA0003936170470010024021B1054A58
:10463400D36940EA030303E0024AD36923EA00038F
:10464400D36170470010024021B1054AD36840EAA3
:10465400030303E0024AD36823EA0003D3607047EC
:104664000010024021B1054A136940EA030303E044
:10467400024A136923EA00031361704700100240E1
:10468400014B18607047C04640044242014B186019
:104694007047C0464C004242014B18707047C046F8
:1046A400071002404309012B08D103F1804303F5AD
:1046B400023303F5FF6307331B680CE0022B08D1B8
:1046C40003F1804303F5023303F5FF6306331B6AEA
:1046D40001E0044B5B6A00F01F0033FA00F000F0C5
:1046E4000100704700100240024A536A43F080738D
:1046F4005362704700100240034B9B6818420CBF82
:10470400002001207047C04600100240014B187081
:104714007047C0460A100240042803D1044A1368B3
:10472400034303E0024A136823F004031360704751
:1047340010E000E0014B58607047C04610E000E014
:10474400012803D1084A1368034306E010F1020F5D
:1047540005D1054A136823F00103136002E0024BFC
:1047640000229A607047C04610E000E020B1054A7C
:10477400136843F0020303E0024A136823F00203C0
:104784001360704710E000E0014B98687047C04622
:1047940010E000E0C308022B024606D103F1604397
:1047A40003F560430E33186801E0034BD868D0402A
:1047B40000F001007047C04610E000E04FF41653CB
:1047C40003604FF000038380C38003814FF00C0328
:1047D40043814FF0000383817047C046B1F800C0A5
:1047E4004B88028A43EA0C03B1F804C0C98822F456
:1047F400706243EA0C0312040B43120C9BB2134382
:10480400038270474FF00003038043808380C3809A
:104814007047C04621B183899BB243F4005304E03E
:10482400838923F400531B041B0C83817047C04607
:10483400CBB24FEA531C01F01F01012382B013FADB
:1048440001F1BCF1010F019001D10C3005E0BCF184
:10485400020F01D1103000E0143012B103680B4391
:1048640002E0036823EA0103036002B07047C04614
:1048740022B1838A9BB241EA030303E0838A9BB299
:1048840023EA010383827047038A23F00F031B0486
:104894001B0C0382038A9BB20B4303827047C046FE
:1048A400838923F400631B041B0C838183899BB2DB
:1048B400194381817047C04621B183899BB243F07B
:1048C400020304E0838923F002031B041B0C83818D
:1048D4007047C046038A23F020031B041B0C038289
:1048E400038A9BB2194301827047C04621B1038AEF
:1048F4009BB243F4804304E0038A23F480431B0403
:104904001B0C03827047C046C905C90D81807047DE
:104914008088C005C00D704783899BB243F00103B2
:1049240083817047038BDBB20383038B9BB243EA1F
:10493400012303837047C046038B03F47F4303833F
:10494400038B9BB20B4303837047C04621B1838A18
:104954009BB243F0200304E0838A23F020031B046A
:104964001B0C83827047C04621B1838A9BB243F0FB
:10497400100304E0838A23F010031B041B0C8382BE
:104984007047C04621B1838A9BB243F0080304E018
:10499400838A23F008031B041B0C83827047C046E0
:1049A400838A23F004031B041B0C8382838A9BB237
:1049B400194381827047C04621B1838A9BB243F078
:1049C400020304E0838A23F002031B041B0C83828A
:1049D4007047C046038819420CBF0020012070476D
:1049E4006FEA010189B201807047C046CBB24FEA39
:1049F400531C01F01F02012313FA02F2BCF1010F50
:104A040008BF838904D0BCF1020F0CBF038A838AD8
:104A14009BB202EA030C0B0A01229A4003889BB260
:104A24001A420CBF00200120BCF1000F0CBF002073
:104A340000F001007047C046090A01238B406FEA69
:104A440003039BB203807047038ACA8823F440534C
:104A54001B041B0C13430382828970B50B890E4619
:104A6400898822F4B0520B43718922F00C020B4363
:104A74001204120C9BB213438381838AB28923F4F8
:104A840040731B041B0C88B01343054683820190BA
:104A9400044603A8FFF752FD104B11489D420CBF7A
:104AA400069B059B03EB8301336801EB81019B00AB
:104AB400B1FBF3F1A1FB002364224FEA531C0CFB6E
:104AC400121212013232A2FB00235B0903F00F031E
:104AD40043EA0C139BB22B8108B070BD003801402F
:104AE4001F85EB5100B5224B83B0984201902BD027
:104AF40008D8A3F50063984216D003F58063984262
:104B040034D119E01B4B984226D003F568439842F0
:104B14002CD101214FF48040FFF796FD4FF48040E3
:104B24000021FFF791FD21E04FF400300121FFF750
:104B340099FD4FF4003016E04FF480200121FFF777
:104B440091FD4FF480200EE04FF400200121FFF787
:104B540089FD4FF4002006E04FF480100121FFF797
:104B640081FD4FF480100021FFF77CFD03B000BDF0
:104B7400004C00400050004030BF704720BF7047D9
:104B840040BF7047BFF36F8F7047BFF34F8F7047BD
:104B9400BFF35F8F704701DF7047EFF314807047F6
:104BA40080F31488BFF36F8F7047EFF30980704769
:104BB40080F309887047EFF30880704780F3088812
:104BC400704772B6704762B6704771B6704761B687
:104BD400704780F311887047EFF31280704740BA32
:104BE400704700BA704700002DF0070168468D46F3
:104BF40001B500220C49DFF834C00D4802E08358A7
:104C04008B50043201EB02036345F8D3094B0A4984
:104C1400002201E043F8042B8B42FBD3FEF792FA07
:104C2400BDE80140854670470000002010000020C8
:104C34006C4C000810000020400000200000000020
:104C4400010203040102030406070809020406081A
:104C54002048454C4C4F203A290A0D0073656E6478
:084C6400696E67200A200D00B3
:104C6C0040420F0000E100000000FF0301000000C3
:00000001FF
